{
  "address": "0x2FC99d7DeedEFA2A5973AECdEA3CB39DdA33dDBC",
  "abi": [
    {
      "inputs": [
        {
          "internalType": "string",
          "name": "uri",
          "type": "string"
        },
        {
          "internalType": "string",
          "name": "name",
          "type": "string"
        },
        {
          "internalType": "string",
          "name": "symbol",
          "type": "string"
        }
      ],
      "stateMutability": "nonpayable",
      "type": "constructor"
    },
    {
      "anonymous": false,
      "inputs": [
        {
          "indexed": true,
          "internalType": "address",
          "name": "owner",
          "type": "address"
        },
        {
          "indexed": true,
          "internalType": "address",
          "name": "approved",
          "type": "address"
        },
        {
          "indexed": true,
          "internalType": "uint256",
          "name": "tokenId",
          "type": "uint256"
        }
      ],
      "name": "Approval",
      "type": "event"
    },
    {
      "anonymous": false,
      "inputs": [
        {
          "indexed": true,
          "internalType": "address",
          "name": "owner",
          "type": "address"
        },
        {
          "indexed": true,
          "internalType": "address",
          "name": "operator",
          "type": "address"
        },
        {
          "indexed": false,
          "internalType": "bool",
          "name": "approved",
          "type": "bool"
        }
      ],
      "name": "ApprovalForAll",
      "type": "event"
    },
    {
      "anonymous": false,
      "inputs": [
        {
          "indexed": false,
          "internalType": "uint256",
          "name": "kind",
          "type": "uint256"
        },
        {
          "indexed": false,
          "internalType": "bytes32",
          "name": "nameHash",
          "type": "bytes32"
        }
      ],
      "name": "KindAdded",
      "type": "event"
    },
    {
      "anonymous": false,
      "inputs": [
        {
          "indexed": true,
          "internalType": "bytes32",
          "name": "role",
          "type": "bytes32"
        },
        {
          "indexed": true,
          "internalType": "bytes32",
          "name": "previousAdminRole",
          "type": "bytes32"
        },
        {
          "indexed": true,
          "internalType": "bytes32",
          "name": "newAdminRole",
          "type": "bytes32"
        }
      ],
      "name": "RoleAdminChanged",
      "type": "event"
    },
    {
      "anonymous": false,
      "inputs": [
        {
          "indexed": true,
          "internalType": "bytes32",
          "name": "role",
          "type": "bytes32"
        },
        {
          "indexed": true,
          "internalType": "address",
          "name": "account",
          "type": "address"
        },
        {
          "indexed": true,
          "internalType": "address",
          "name": "sender",
          "type": "address"
        }
      ],
      "name": "RoleGranted",
      "type": "event"
    },
    {
      "anonymous": false,
      "inputs": [
        {
          "indexed": true,
          "internalType": "bytes32",
          "name": "role",
          "type": "bytes32"
        },
        {
          "indexed": true,
          "internalType": "address",
          "name": "account",
          "type": "address"
        },
        {
          "indexed": true,
          "internalType": "address",
          "name": "sender",
          "type": "address"
        }
      ],
      "name": "RoleRevoked",
      "type": "event"
    },
    {
      "anonymous": false,
      "inputs": [
        {
          "indexed": true,
          "internalType": "address",
          "name": "from",
          "type": "address"
        },
        {
          "indexed": true,
          "internalType": "address",
          "name": "to",
          "type": "address"
        },
        {
          "indexed": true,
          "internalType": "uint256",
          "name": "tokenId",
          "type": "uint256"
        }
      ],
      "name": "Transfer",
      "type": "event"
    },
    {
      "inputs": [],
      "name": "DEFAULT_ADMIN_ROLE",
      "outputs": [
        {
          "internalType": "bytes32",
          "name": "",
          "type": "bytes32"
        }
      ],
      "stateMutability": "view",
      "type": "function"
    },
    {
      "inputs": [],
      "name": "MINTER_ROLE",
      "outputs": [
        {
          "internalType": "bytes32",
          "name": "",
          "type": "bytes32"
        }
      ],
      "stateMutability": "view",
      "type": "function"
    },
    {
      "inputs": [
        {
          "internalType": "uint256",
          "name": "kind",
          "type": "uint256"
        },
        {
          "internalType": "string",
          "name": "kindName",
          "type": "string"
        }
      ],
      "name": "addKind",
      "outputs": [],
      "stateMutability": "nonpayable",
      "type": "function"
    },
    {
      "inputs": [
        {
          "internalType": "address",
          "name": "to",
          "type": "address"
        },
        {
          "internalType": "uint256",
          "name": "tokenId",
          "type": "uint256"
        }
      ],
      "name": "approve",
      "outputs": [],
      "stateMutability": "nonpayable",
      "type": "function"
    },
    {
      "inputs": [
        {
          "internalType": "address",
          "name": "owner",
          "type": "address"
        }
      ],
      "name": "balanceOf",
      "outputs": [
        {
          "internalType": "uint256",
          "name": "",
          "type": "uint256"
        }
      ],
      "stateMutability": "view",
      "type": "function"
    },
    {
      "inputs": [
        {
          "internalType": "uint256",
          "name": "tokenId",
          "type": "uint256"
        }
      ],
      "name": "getApproved",
      "outputs": [
        {
          "internalType": "address",
          "name": "",
          "type": "address"
        }
      ],
      "stateMutability": "view",
      "type": "function"
    },
    {
      "inputs": [
        {
          "internalType": "uint256",
          "name": "id",
          "type": "uint256"
        }
      ],
      "name": "getKind",
      "outputs": [
        {
          "internalType": "uint256",
          "name": "",
          "type": "uint256"
        }
      ],
      "stateMutability": "pure",
      "type": "function"
    },
    {
      "inputs": [
        {
          "internalType": "uint256",
          "name": "kind",
          "type": "uint256"
        }
      ],
      "name": "getKindHash",
      "outputs": [
        {
          "internalType": "bytes32",
          "name": "",
          "type": "bytes32"
        }
      ],
      "stateMutability": "view",
      "type": "function"
    },
    {
      "inputs": [
        {
          "internalType": "uint256",
          "name": "kind",
          "type": "uint256"
        }
      ],
      "name": "getKindName",
      "outputs": [
        {
          "internalType": "string",
          "name": "",
          "type": "string"
        }
      ],
      "stateMutability": "view",
      "type": "function"
    },
    {
      "inputs": [
        {
          "internalType": "bytes32",
          "name": "kindHash",
          "type": "bytes32"
        }
      ],
      "name": "getKindNameByHash",
      "outputs": [
        {
          "internalType": "string",
          "name": "",
          "type": "string"
        }
      ],
      "stateMutability": "view",
      "type": "function"
    },
    {
      "inputs": [
        {
          "internalType": "uint256",
          "name": "id",
          "type": "uint256"
        }
      ],
      "name": "getKindNameById",
      "outputs": [
        {
          "internalType": "string",
          "name": "",
          "type": "string"
        }
      ],
      "stateMutability": "view",
      "type": "function"
    },
    {
      "inputs": [
        {
          "internalType": "uint256",
          "name": "kind",
          "type": "uint256"
        }
      ],
      "name": "getNFTKindSupply",
      "outputs": [
        {
          "internalType": "uint256",
          "name": "",
          "type": "uint256"
        }
      ],
      "stateMutability": "view",
      "type": "function"
    },
    {
      "inputs": [
        {
          "internalType": "bytes32",
          "name": "role",
          "type": "bytes32"
        }
      ],
      "name": "getRoleAdmin",
      "outputs": [
        {
          "internalType": "bytes32",
          "name": "",
          "type": "bytes32"
        }
      ],
      "stateMutability": "view",
      "type": "function"
    },
    {
      "inputs": [
        {
          "internalType": "bytes32",
          "name": "role",
          "type": "bytes32"
        },
        {
          "internalType": "address",
          "name": "account",
          "type": "address"
        }
      ],
      "name": "grantRole",
      "outputs": [],
      "stateMutability": "nonpayable",
      "type": "function"
    },
    {
      "inputs": [
        {
          "internalType": "bytes32",
          "name": "role",
          "type": "bytes32"
        },
        {
          "internalType": "address",
          "name": "account",
          "type": "address"
        }
      ],
      "name": "hasRole",
      "outputs": [
        {
          "internalType": "bool",
          "name": "",
          "type": "bool"
        }
      ],
      "stateMutability": "view",
      "type": "function"
    },
    {
      "inputs": [
        {
          "internalType": "address",
          "name": "owner",
          "type": "address"
        },
        {
          "internalType": "address",
          "name": "operator",
          "type": "address"
        }
      ],
      "name": "isApprovedForAll",
      "outputs": [
        {
          "internalType": "bool",
          "name": "",
          "type": "bool"
        }
      ],
      "stateMutability": "view",
      "type": "function"
    },
    {
      "inputs": [
        {
          "internalType": "uint256",
          "name": "id",
          "type": "uint256"
        },
        {
          "internalType": "uint256",
          "name": "kind",
          "type": "uint256"
        }
      ],
      "name": "isKind",
      "outputs": [
        {
          "internalType": "bool",
          "name": "",
          "type": "bool"
        }
      ],
      "stateMutability": "pure",
      "type": "function"
    },
    {
      "inputs": [
        {
          "internalType": "address",
          "name": "to",
          "type": "address"
        },
        {
          "internalType": "uint256",
          "name": "kind",
          "type": "uint256"
        }
      ],
      "name": "mintKind",
      "outputs": [],
      "stateMutability": "nonpayable",
      "type": "function"
    },
    {
      "inputs": [],
      "name": "name",
      "outputs": [
        {
          "internalType": "string",
          "name": "",
          "type": "string"
        }
      ],
      "stateMutability": "view",
      "type": "function"
    },
    {
      "inputs": [
        {
          "internalType": "uint256",
          "name": "tokenId",
          "type": "uint256"
        }
      ],
      "name": "ownerOf",
      "outputs": [
        {
          "internalType": "address",
          "name": "",
          "type": "address"
        }
      ],
      "stateMutability": "view",
      "type": "function"
    },
    {
      "inputs": [
        {
          "internalType": "bytes32",
          "name": "role",
          "type": "bytes32"
        },
        {
          "internalType": "address",
          "name": "account",
          "type": "address"
        }
      ],
      "name": "renounceRole",
      "outputs": [],
      "stateMutability": "nonpayable",
      "type": "function"
    },
    {
      "inputs": [
        {
          "internalType": "bytes32",
          "name": "role",
          "type": "bytes32"
        },
        {
          "internalType": "address",
          "name": "account",
          "type": "address"
        }
      ],
      "name": "revokeRole",
      "outputs": [],
      "stateMutability": "nonpayable",
      "type": "function"
    },
    {
      "inputs": [
        {
          "internalType": "address",
          "name": "from",
          "type": "address"
        },
        {
          "internalType": "address",
          "name": "to",
          "type": "address"
        },
        {
          "internalType": "uint256",
          "name": "tokenId",
          "type": "uint256"
        }
      ],
      "name": "safeTransferFrom",
      "outputs": [],
      "stateMutability": "nonpayable",
      "type": "function"
    },
    {
      "inputs": [
        {
          "internalType": "address",
          "name": "from",
          "type": "address"
        },
        {
          "internalType": "address",
          "name": "to",
          "type": "address"
        },
        {
          "internalType": "uint256",
          "name": "tokenId",
          "type": "uint256"
        },
        {
          "internalType": "bytes",
          "name": "data",
          "type": "bytes"
        }
      ],
      "name": "safeTransferFrom",
      "outputs": [],
      "stateMutability": "nonpayable",
      "type": "function"
    },
    {
      "inputs": [
        {
          "internalType": "address",
          "name": "operator",
          "type": "address"
        },
        {
          "internalType": "bool",
          "name": "approved",
          "type": "bool"
        }
      ],
      "name": "setApprovalForAll",
      "outputs": [],
      "stateMutability": "nonpayable",
      "type": "function"
    },
    {
      "inputs": [
        {
          "internalType": "string",
          "name": "newUri",
          "type": "string"
        }
      ],
      "name": "setBaseURI",
      "outputs": [],
      "stateMutability": "nonpayable",
      "type": "function"
    },
    {
      "inputs": [
        {
          "internalType": "bytes4",
          "name": "interfaceId",
          "type": "bytes4"
        }
      ],
      "name": "supportsInterface",
      "outputs": [
        {
          "internalType": "bool",
          "name": "",
          "type": "bool"
        }
      ],
      "stateMutability": "view",
      "type": "function"
    },
    {
      "inputs": [],
      "name": "symbol",
      "outputs": [
        {
          "internalType": "string",
          "name": "",
          "type": "string"
        }
      ],
      "stateMutability": "view",
      "type": "function"
    },
    {
      "inputs": [
        {
          "internalType": "uint256",
          "name": "index",
          "type": "uint256"
        }
      ],
      "name": "tokenByIndex",
      "outputs": [
        {
          "internalType": "uint256",
          "name": "",
          "type": "uint256"
        }
      ],
      "stateMutability": "view",
      "type": "function"
    },
    {
      "inputs": [
        {
          "internalType": "address",
          "name": "owner",
          "type": "address"
        },
        {
          "internalType": "uint256",
          "name": "index",
          "type": "uint256"
        }
      ],
      "name": "tokenOfOwnerByIndex",
      "outputs": [
        {
          "internalType": "uint256",
          "name": "",
          "type": "uint256"
        }
      ],
      "stateMutability": "view",
      "type": "function"
    },
    {
      "inputs": [
        {
          "internalType": "uint256",
          "name": "tokenId",
          "type": "uint256"
        }
      ],
      "name": "tokenURI",
      "outputs": [
        {
          "internalType": "string",
          "name": "",
          "type": "string"
        }
      ],
      "stateMutability": "view",
      "type": "function"
    },
    {
      "inputs": [],
      "name": "totalSupply",
      "outputs": [
        {
          "internalType": "uint256",
          "name": "",
          "type": "uint256"
        }
      ],
      "stateMutability": "view",
      "type": "function"
    },
    {
      "inputs": [
        {
          "internalType": "address",
          "name": "from",
          "type": "address"
        },
        {
          "internalType": "address",
          "name": "to",
          "type": "address"
        },
        {
          "internalType": "uint256",
          "name": "tokenId",
          "type": "uint256"
        }
      ],
      "name": "transferFrom",
      "outputs": [],
      "stateMutability": "nonpayable",
      "type": "function"
    }
  ],
  "transactionHash": "0xda85a41590bdd4eadb91b488b31c0805e2bbb2f361820b5bb91ca891da78b6a2",
  "args": [
    "https://api-ether-luxe.definme.com/metadata/characters",
    "EtherLuxeCollectionCharacters",
    "ELCC"
  ],
  "numDeployments": 1,
  "solcInputHash": "036effc3c79465af304e112d330af661",
  "bytecode": "0x60806040523480156200001157600080fd5b506040516200506a3803806200506a8339818101604052810190620000379190620003f3565b828282818181600090816200004d9190620006f7565b5080600190816200005f9190620006f7565b50505082600e9081620000739190620006f7565b50620000986000801b6200008c620000e560201b60201c565b620000ed60201b60201c565b620000d97f9f2df0fed2c77648de5860a4cc508cd0818c85b8b8a1ab4ceeef8d981c8956a6620000cd620000e560201b60201c565b620000ed60201b60201c565b505050505050620007de565b600033905090565b620000ff82826200010360201b60201c565b5050565b620001158282620001f560201b60201c565b620001f1576001600a600084815260200190815260200160002060000160008373ffffffffffffffffffffffffffffffffffffffff1673ffffffffffffffffffffffffffffffffffffffff16815260200190815260200160002060006101000a81548160ff02191690831515021790555062000196620000e560201b60201c565b73ffffffffffffffffffffffffffffffffffffffff168173ffffffffffffffffffffffffffffffffffffffff16837f2f8788117e7eff1d82e926ec794901d17c78024a50270940304540a733656f0d60405160405180910390a45b5050565b6000600a600084815260200190815260200160002060000160008373ffffffffffffffffffffffffffffffffffffffff1673ffffffffffffffffffffffffffffffffffffffff16815260200190815260200160002060009054906101000a900460ff16905092915050565b6000604051905090565b600080fd5b600080fd5b600080fd5b600080fd5b6000601f19601f8301169050919050565b7f4e487b7100000000000000000000000000000000000000000000000000000000600052604160045260246000fd5b620002c9826200027e565b810181811067ffffffffffffffff82111715620002eb57620002ea6200028f565b5b80604052505050565b60006200030062000260565b90506200030e8282620002be565b919050565b600067ffffffffffffffff8211156200033157620003306200028f565b5b6200033c826200027e565b9050602081019050919050565b60005b83811015620003695780820151818401526020810190506200034c565b60008484015250505050565b60006200038c620003868462000313565b620002f4565b905082815260208101848484011115620003ab57620003aa62000279565b5b620003b884828562000349565b509392505050565b600082601f830112620003d857620003d762000274565b5b8151620003ea84826020860162000375565b91505092915050565b6000806000606084860312156200040f576200040e6200026a565b5b600084015167ffffffffffffffff81111562000430576200042f6200026f565b5b6200043e86828701620003c0565b935050602084015167ffffffffffffffff8111156200046257620004616200026f565b5b6200047086828701620003c0565b925050604084015167ffffffffffffffff8111156200049457620004936200026f565b5b620004a286828701620003c0565b9150509250925092565b600081519050919050565b7f4e487b7100000000000000000000000000000000000000000000000000000000600052602260045260246000fd5b60006002820490506001821680620004ff57607f821691505b602082108103620005155762000514620004b7565b5b50919050565b60008190508160005260206000209050919050565b60006020601f8301049050919050565b600082821b905092915050565b6000600883026200057f7fffffffffffffffffffffffffffffffffffffffffffffffffffffffffffffffff8262000540565b6200058b868362000540565b95508019841693508086168417925050509392505050565b6000819050919050565b6000819050919050565b6000620005d8620005d2620005cc84620005a3565b620005ad565b620005a3565b9050919050565b6000819050919050565b620005f483620005b7565b6200060c6200060382620005df565b8484546200054d565b825550505050565b600090565b6200062362000614565b62000630818484620005e9565b505050565b5b8181101562000658576200064c60008262000619565b60018101905062000636565b5050565b601f821115620006a75762000671816200051b565b6200067c8462000530565b810160208510156200068c578190505b620006a46200069b8562000530565b83018262000635565b50505b505050565b600082821c905092915050565b6000620006cc60001984600802620006ac565b1980831691505092915050565b6000620006e78383620006b9565b9150826002028217905092915050565b6200070282620004ac565b67ffffffffffffffff8111156200071e576200071d6200028f565b5b6200072a8254620004e6565b620007378282856200065c565b600060209050601f8311600181146200076f57600084156200075a578287015190505b620007668582620006d9565b865550620007d6565b601f1984166200077f866200051b565b60005b82811015620007a95784890151825560018201915060208501945060208101905062000782565b86831015620007c95784890151620007c5601f891682620006b9565b8355505b6001600288020188555050505b505050505050565b61487c80620007ee6000396000f3fe608060405234801561001057600080fd5b50600436106101fb5760003560e01c80635dbdd4971161011a578063a77d8c52116100ad578063d53913931161007c578063d539139314610658578063d547741f14610676578063e985e9c514610692578063eda67795146106c2578063f7cc6963146106de576101fb565b8063a77d8c52146105ac578063a926f8c1146105dc578063b88d4fde1461060c578063c87b56dd14610628576101fb565b806391d14854116100e957806391d148541461052457806395d89b4114610554578063a217fddf14610572578063a22cb46514610590576101fb565b80635dbdd497146104645780636352211e146104945780636ca8fede146104c457806370a08231146104f4576101fb565b80632f745c5911610192578063492e17fe11610161578063492e17fe146103b85780634dd4a0e5146103e85780634f6ccce71461041857806355f804b314610448576101fb565b80632f745c591461032057806336568abe1461035057806340fb4cfb1461036c57806342842e0e1461039c576101fb565b806318160ddd116101ce57806318160ddd1461029a57806323b872dd146102b8578063248a9ca3146102d45780632f2ff15d14610304576101fb565b806301ffc9a71461020057806306fdde0314610230578063081812fc1461024e578063095ea7b31461027e575b600080fd5b61021a60048036038101906102159190612edb565b6106fa565b6040516102279190612f23565b60405180910390f35b61023861070c565b6040516102459190612fce565b60405180910390f35b61026860048036038101906102639190613026565b61079e565b6040516102759190613094565b60405180910390f35b610298600480360381019061029391906130db565b6107e4565b005b6102a26108fb565b6040516102af919061312a565b60405180910390f35b6102d260048036038101906102cd9190613145565b610908565b005b6102ee60048036038101906102e991906131ce565b610968565b6040516102fb919061320a565b60405180910390f35b61031e60048036038101906103199190613225565b610988565b005b61033a600480360381019061033591906130db565b6109a9565b604051610347919061312a565b60405180910390f35b61036a60048036038101906103659190613225565b610a4e565b005b61038660048036038101906103819190613026565b610ad1565b6040516103939190612fce565b60405180910390f35b6103b660048036038101906103b19190613145565b610be2565b005b6103d260048036038101906103cd9190613265565b610c02565b6040516103df9190612f23565b60405180910390f35b61040260048036038101906103fd91906131ce565b610c17565b60405161040f9190612fce565b60405180910390f35b610432600480360381019061042d9190613026565b610cbc565b60405161043f919061312a565b60405180910390f35b610462600480360381019061045d91906133da565b610d2d565b005b61047e60048036038101906104799190613026565b610d93565b60405161048b919061320a565b60405180910390f35b6104ae60048036038101906104a99190613026565b610db0565b6040516104bb9190613094565b60405180910390f35b6104de60048036038101906104d99190613026565b610e36565b6040516104eb919061312a565b60405180910390f35b61050e60048036038101906105099190613423565b610e4a565b60405161051b919061312a565b60405180910390f35b61053e60048036038101906105399190613225565b610f01565b60405161054b9190612f23565b60405180910390f35b61055c610f6c565b6040516105699190612fce565b60405180910390f35b61057a610ffe565b604051610587919061320a565b60405180910390f35b6105aa60048036038101906105a5919061347c565b611005565b005b6105c660048036038101906105c19190613026565b61101b565b6040516105d3919061312a565b60405180910390f35b6105f660048036038101906105f19190613026565b611038565b6040516106039190612fce565b60405180910390f35b6106266004803603810190610621919061355d565b6110f6565b005b610642600480360381019061063d9190613026565b611158565b60405161064f9190612fce565b60405180910390f35b6106606111c0565b60405161066d919061320a565b60405180910390f35b610690600480360381019061068b9190613225565b6111e4565b005b6106ac60048036038101906106a791906135e0565b611205565b6040516106b99190612f23565b60405180910390f35b6106dc60048036038101906106d791906130db565b611299565b005b6106f860048036038101906106f39190613620565b6113bd565b005b600061070582611527565b9050919050565b60606000805461071b906136ab565b80601f0160208091040260200160405190810160405280929190818152602001828054610747906136ab565b80156107945780601f1061076957610100808354040283529160200191610794565b820191906000526020600020905b81548152906001019060200180831161077757829003601f168201915b5050505050905090565b60006107a9826115a1565b6004600083815260200190815260200160002060009054906101000a900473ffffffffffffffffffffffffffffffffffffffff169050919050565b60006107ef82610db0565b90508073ffffffffffffffffffffffffffffffffffffffff168373ffffffffffffffffffffffffffffffffffffffff160361085f576040517f08c379a00000000000000000000000000000000000000000000000000000000081526004016108569061374e565b60405180910390fd5b8073ffffffffffffffffffffffffffffffffffffffff1661087e6115ec565b73ffffffffffffffffffffffffffffffffffffffff1614806108ad57506108ac816108a76115ec565b611205565b5b6108ec576040517f08c379a00000000000000000000000000000000000000000000000000000000081526004016108e3906137e0565b60405180910390fd5b6108f683836115f4565b505050565b6000600880549050905090565b6109196109136115ec565b826116ad565b610958576040517f08c379a000000000000000000000000000000000000000000000000000000000815260040161094f90613872565b60405180910390fd5b610963838383611742565b505050565b6000600a6000838152602001908152602001600020600101549050919050565b61099182610968565b61099a81611a3b565b6109a48383611a4f565b505050565b60006109b483610e4a565b82106109f5576040517f08c379a00000000000000000000000000000000000000000000000000000000081526004016109ec90613904565b60405180910390fd5b600660008473ffffffffffffffffffffffffffffffffffffffff1673ffffffffffffffffffffffffffffffffffffffff168152602001908152602001600020600083815260200190815260200160002054905092915050565b610a566115ec565b73ffffffffffffffffffffffffffffffffffffffff168173ffffffffffffffffffffffffffffffffffffffff1614610ac3576040517f08c379a0000000000000000000000000000000000000000000000000000000008152600401610aba90613996565b60405180910390fd5b610acd8282611b30565b5050565b60606000610ade83610e36565b90506000600c60008381526020019081526020016000205490506000801b8103610b3d576040517f08c379a0000000000000000000000000000000000000000000000000000000008152600401610b3490613a02565b60405180910390fd5b600d60008281526020019081526020016000208054610b5b906136ab565b80601f0160208091040260200160405190810160405280929190818152602001828054610b87906136ab565b8015610bd45780601f10610ba957610100808354040283529160200191610bd4565b820191906000526020600020905b815481529060010190602001808311610bb757829003601f168201915b505050505092505050919050565b610bfd838383604051806020016040528060008152506110f6565b505050565b600081610c0e84610e36565b14905092915050565b6060600d60008381526020019081526020016000208054610c37906136ab565b80601f0160208091040260200160405190810160405280929190818152602001828054610c63906136ab565b8015610cb05780601f10610c8557610100808354040283529160200191610cb0565b820191906000526020600020905b815481529060010190602001808311610c9357829003601f168201915b50505050509050919050565b6000610cc66108fb565b8210610d07576040517f08c379a0000000000000000000000000000000000000000000000000000000008152600401610cfe90613a94565b60405180910390fd5b60088281548110610d1b57610d1a613ab4565b5b90600052602060002001549050919050565b610d416000801b610d3c6115ec565b610f01565b610d80576040517f08c379a0000000000000000000000000000000000000000000000000000000008152600401610d7790613b2f565b60405180910390fd5b80600e9081610d8f9190613cfb565b5050565b6000600c6000838152602001908152602001600020549050919050565b600080610dbc83611c12565b9050600073ffffffffffffffffffffffffffffffffffffffff168173ffffffffffffffffffffffffffffffffffffffff1603610e2d576040517f08c379a0000000000000000000000000000000000000000000000000000000008152600401610e2490613e19565b60405180910390fd5b80915050919050565b600060108263ffff000016901c9050919050565b60008073ffffffffffffffffffffffffffffffffffffffff168273ffffffffffffffffffffffffffffffffffffffff1603610eba576040517f08c379a0000000000000000000000000000000000000000000000000000000008152600401610eb190613eab565b60405180910390fd5b600360008373ffffffffffffffffffffffffffffffffffffffff1673ffffffffffffffffffffffffffffffffffffffff168152602001908152602001600020549050919050565b6000600a600084815260200190815260200160002060000160008373ffffffffffffffffffffffffffffffffffffffff1673ffffffffffffffffffffffffffffffffffffffff16815260200190815260200160002060009054906101000a900460ff16905092915050565b606060018054610f7b906136ab565b80601f0160208091040260200160405190810160405280929190818152602001828054610fa7906136ab565b8015610ff45780601f10610fc957610100808354040283529160200191610ff4565b820191906000526020600020905b815481529060010190602001808311610fd757829003601f168201915b5050505050905090565b6000801b81565b6110176110106115ec565b8383611c4f565b5050565b6000600b6000838152602001908152602001600020549050919050565b60606000600c6000848152602001908152602001600020549050600d60008281526020019081526020016000208054611070906136ab565b80601f016020809104026020016040519081016040528092919081815260200182805461109c906136ab565b80156110e95780601f106110be576101008083540402835291602001916110e9565b820191906000526020600020905b8154815290600101906020018083116110cc57829003601f168201915b5050505050915050919050565b6111076111016115ec565b836116ad565b611146576040517f08c379a000000000000000000000000000000000000000000000000000000000815260040161113d90613872565b60405180910390fd5b61115284848484611dbb565b50505050565b6060611163826115a1565b600061116d611e17565b9050600081511161118d57604051806020016040528060008152506111b8565b8061119784611ea9565b6040516020016111a8929190613f9f565b6040516020818303038152906040525b915050919050565b7f9f2df0fed2c77648de5860a4cc508cd0818c85b8b8a1ab4ceeef8d981c8956a681565b6111ed82610968565b6111f681611a3b565b6112008383611b30565b505050565b6000600560008473ffffffffffffffffffffffffffffffffffffffff1673ffffffffffffffffffffffffffffffffffffffff16815260200190815260200160002060008373ffffffffffffffffffffffffffffffffffffffff1673ffffffffffffffffffffffffffffffffffffffff16815260200190815260200160002060009054906101000a900460ff16905092915050565b6112ca7f9f2df0fed2c77648de5860a4cc508cd0818c85b8b8a1ab4ceeef8d981c8956a66112c56115ec565b610f01565b611309576040517f08c379a000000000000000000000000000000000000000000000000000000000815260040161130090614025565b60405180910390fd5b6000600c60008381526020019081526020016000205490506000801b8103611366576040517f08c379a000000000000000000000000000000000000000000000000000000000815260040161135d90613a02565b60405180910390fd5b6000600b600084815260200190815260200160002054601084901b179050600b600084815260200190815260200160002060008154809291906113a890614074565b91905055506113b78482611f77565b50505050565b6113ee7f9f2df0fed2c77648de5860a4cc508cd0818c85b8b8a1ab4ceeef8d981c8956a66113e96115ec565b610f01565b61142d576040517f08c379a000000000000000000000000000000000000000000000000000000000815260040161142490614025565b60405180910390fd5b6000801b600c60008481526020019081526020016000205414611485576040517f08c379a000000000000000000000000000000000000000000000000000000000815260040161147c90614108565b60405180910390fd5b6000816040516020016114989190614128565b60405160208183030381529060405280519060200120905080600c60008581526020019081526020016000208190555081600d600083815260200190815260200160002090816114e89190613cfb565b507f860618e718c74acc51c0bdb816d937a08f1450eb2598be383b96fde5562e6fd4838260405161151a92919061413f565b60405180910390a1505050565b60007f7965db0b000000000000000000000000000000000000000000000000000000007bffffffffffffffffffffffffffffffffffffffffffffffffffffffff1916827bffffffffffffffffffffffffffffffffffffffffffffffffffffffff1916148061159a575061159982611f95565b5b9050919050565b6115aa8161200f565b6115e9576040517f08c379a00000000000000000000000000000000000000000000000000000000081526004016115e090613e19565b60405180910390fd5b50565b600033905090565b816004600083815260200190815260200160002060006101000a81548173ffffffffffffffffffffffffffffffffffffffff021916908373ffffffffffffffffffffffffffffffffffffffff160217905550808273ffffffffffffffffffffffffffffffffffffffff1661166783610db0565b73ffffffffffffffffffffffffffffffffffffffff167f8c5be1e5ebec7d5bd14f71427d1e84f3dd0314c0f7b2291e5b200ac8c7c3b92560405160405180910390a45050565b6000806116b983610db0565b90508073ffffffffffffffffffffffffffffffffffffffff168473ffffffffffffffffffffffffffffffffffffffff1614806116fb57506116fa8185611205565b5b8061173957508373ffffffffffffffffffffffffffffffffffffffff166117218461079e565b73ffffffffffffffffffffffffffffffffffffffff16145b91505092915050565b8273ffffffffffffffffffffffffffffffffffffffff1661176282610db0565b73ffffffffffffffffffffffffffffffffffffffff16146117b8576040517f08c379a00000000000000000000000000000000000000000000000000000000081526004016117af906141da565b60405180910390fd5b600073ffffffffffffffffffffffffffffffffffffffff168273ffffffffffffffffffffffffffffffffffffffff1603611827576040517f08c379a000000000000000000000000000000000000000000000000000000000815260040161181e9061426c565b60405180910390fd5b6118348383836001612050565b8273ffffffffffffffffffffffffffffffffffffffff1661185482610db0565b73ffffffffffffffffffffffffffffffffffffffff16146118aa576040517f08c379a00000000000000000000000000000000000000000000000000000000081526004016118a1906141da565b60405180910390fd5b6004600082815260200190815260200160002060006101000a81549073ffffffffffffffffffffffffffffffffffffffff02191690556001600360008573ffffffffffffffffffffffffffffffffffffffff1673ffffffffffffffffffffffffffffffffffffffff168152602001908152602001600020600082825403925050819055506001600360008473ffffffffffffffffffffffffffffffffffffffff1673ffffffffffffffffffffffffffffffffffffffff16815260200190815260200160002060008282540192505081905550816002600083815260200190815260200160002060006101000a81548173ffffffffffffffffffffffffffffffffffffffff021916908373ffffffffffffffffffffffffffffffffffffffff160217905550808273ffffffffffffffffffffffffffffffffffffffff168473ffffffffffffffffffffffffffffffffffffffff167fddf252ad1be2c89b69c2b068fc378daa952ba7f163c4a11628f55a4df523b3ef60405160405180910390a4611a3683838360016121ae565b505050565b611a4c81611a476115ec565b6121b4565b50565b611a598282610f01565b611b2c576001600a600084815260200190815260200160002060000160008373ffffffffffffffffffffffffffffffffffffffff1673ffffffffffffffffffffffffffffffffffffffff16815260200190815260200160002060006101000a81548160ff021916908315150217905550611ad16115ec565b73ffffffffffffffffffffffffffffffffffffffff168173ffffffffffffffffffffffffffffffffffffffff16837f2f8788117e7eff1d82e926ec794901d17c78024a50270940304540a733656f0d60405160405180910390a45b5050565b611b3a8282610f01565b15611c0e576000600a600084815260200190815260200160002060000160008373ffffffffffffffffffffffffffffffffffffffff1673ffffffffffffffffffffffffffffffffffffffff16815260200190815260200160002060006101000a81548160ff021916908315150217905550611bb36115ec565b73ffffffffffffffffffffffffffffffffffffffff168173ffffffffffffffffffffffffffffffffffffffff16837ff6391f5c32d9c69d2a47ea670b442974b53935d1edc7fd64eb21e047a839171b60405160405180910390a45b5050565b60006002600083815260200190815260200160002060009054906101000a900473ffffffffffffffffffffffffffffffffffffffff169050919050565b8173ffffffffffffffffffffffffffffffffffffffff168373ffffffffffffffffffffffffffffffffffffffff1603611cbd576040517f08c379a0000000000000000000000000000000000000000000000000000000008152600401611cb4906142d8565b60405180910390fd5b80600560008573ffffffffffffffffffffffffffffffffffffffff1673ffffffffffffffffffffffffffffffffffffffff16815260200190815260200160002060008473ffffffffffffffffffffffffffffffffffffffff1673ffffffffffffffffffffffffffffffffffffffff16815260200190815260200160002060006101000a81548160ff0219169083151502179055508173ffffffffffffffffffffffffffffffffffffffff168373ffffffffffffffffffffffffffffffffffffffff167f17307eab39ab6107e8899845ad3d59bd9653f200f220920489ca2b5937696c3183604051611dae9190612f23565b60405180910390a3505050565b611dc6848484611742565b611dd284848484612239565b611e11576040517f08c379a0000000000000000000000000000000000000000000000000000000008152600401611e089061436a565b60405180910390fd5b50505050565b6060600e8054611e26906136ab565b80601f0160208091040260200160405190810160405280929190818152602001828054611e52906136ab565b8015611e9f5780601f10611e7457610100808354040283529160200191611e9f565b820191906000526020600020905b815481529060010190602001808311611e8257829003601f168201915b5050505050905090565b606060006001611eb8846123c0565b01905060008167ffffffffffffffff811115611ed757611ed66132af565b5b6040519080825280601f01601f191660200182016040528015611f095781602001600182028036833780820191505090505b509050600082602001820190505b600115611f6c578080600190039150507f3031323334353637383961626364656600000000000000000000000000000000600a86061a8153600a8581611f6057611f5f61438a565b5b04945060008503611f17575b819350505050919050565b611f91828260405180602001604052806000815250612513565b5050565b60007f780e9d63000000000000000000000000000000000000000000000000000000007bffffffffffffffffffffffffffffffffffffffffffffffffffffffff1916827bffffffffffffffffffffffffffffffffffffffffffffffffffffffff1916148061200857506120078261256e565b5b9050919050565b60008073ffffffffffffffffffffffffffffffffffffffff1661203183611c12565b73ffffffffffffffffffffffffffffffffffffffff1614159050919050565b61205c84848484612650565b60018111156120a0576040517f08c379a00000000000000000000000000000000000000000000000000000000081526004016120979061442b565b60405180910390fd5b6000829050600073ffffffffffffffffffffffffffffffffffffffff168573ffffffffffffffffffffffffffffffffffffffff16036120e7576120e281612656565b612126565b8373ffffffffffffffffffffffffffffffffffffffff168573ffffffffffffffffffffffffffffffffffffffff161461212557612124858261269f565b5b5b600073ffffffffffffffffffffffffffffffffffffffff168473ffffffffffffffffffffffffffffffffffffffff1603612168576121638161280c565b6121a7565b8473ffffffffffffffffffffffffffffffffffffffff168473ffffffffffffffffffffffffffffffffffffffff16146121a6576121a584826128dd565b5b5b5050505050565b50505050565b6121be8282610f01565b612235576121cb8161295c565b6121d98360001c6020612989565b6040516020016121ea9291906144e3565b6040516020818303038152906040526040517f08c379a000000000000000000000000000000000000000000000000000000000815260040161222c9190612fce565b60405180910390fd5b5050565b600061225a8473ffffffffffffffffffffffffffffffffffffffff16612bc5565b156123b3578373ffffffffffffffffffffffffffffffffffffffff1663150b7a026122836115ec565b8786866040518563ffffffff1660e01b81526004016122a59493929190614572565b6020604051808303816000875af19250505080156122e157506040513d601f19601f820116820180604052508101906122de91906145d3565b60015b612363573d8060008114612311576040519150601f19603f3d011682016040523d82523d6000602084013e612316565b606091505b50600081510361235b576040517f08c379a00000000000000000000000000000000000000000000000000000000081526004016123529061436a565b60405180910390fd5b805181602001fd5b63150b7a0260e01b7bffffffffffffffffffffffffffffffffffffffffffffffffffffffff1916817bffffffffffffffffffffffffffffffffffffffffffffffffffffffff1916149150506123b8565b600190505b949350505050565b600080600090507a184f03e93ff9f4daa797ed6e38ed64bf6a1f010000000000000000831061241e577a184f03e93ff9f4daa797ed6e38ed64bf6a1f01000000000000000083816124145761241361438a565b5b0492506040810190505b6d04ee2d6d415b85acef8100000000831061245b576d04ee2d6d415b85acef810000000083816124515761245061438a565b5b0492506020810190505b662386f26fc10000831061248a57662386f26fc1000083816124805761247f61438a565b5b0492506010810190505b6305f5e10083106124b3576305f5e10083816124a9576124a861438a565b5b0492506008810190505b61271083106124d85761271083816124ce576124cd61438a565b5b0492506004810190505b606483106124fb57606483816124f1576124f061438a565b5b0492506002810190505b600a831061250a576001810190505b80915050919050565b61251d8383612be8565b61252a6000848484612239565b612569576040517f08c379a00000000000000000000000000000000000000000000000000000000081526004016125609061436a565b60405180910390fd5b505050565b60007f80ac58cd000000000000000000000000000000000000000000000000000000007bffffffffffffffffffffffffffffffffffffffffffffffffffffffff1916827bffffffffffffffffffffffffffffffffffffffffffffffffffffffff1916148061263957507f5b5e139f000000000000000000000000000000000000000000000000000000007bffffffffffffffffffffffffffffffffffffffffffffffffffffffff1916827bffffffffffffffffffffffffffffffffffffffffffffffffffffffff1916145b80612649575061264882612e05565b5b9050919050565b50505050565b6008805490506009600083815260200190815260200160002081905550600881908060018154018082558091505060019003906000526020600020016000909190919091505550565b600060016126ac84610e4a565b6126b69190614600565b905060006007600084815260200190815260200160002054905081811461279b576000600660008673ffffffffffffffffffffffffffffffffffffffff1673ffffffffffffffffffffffffffffffffffffffff168152602001908152602001600020600084815260200190815260200160002054905080600660008773ffffffffffffffffffffffffffffffffffffffff1673ffffffffffffffffffffffffffffffffffffffff168152602001908152602001600020600084815260200190815260200160002081905550816007600083815260200190815260200160002081905550505b6007600084815260200190815260200160002060009055600660008573ffffffffffffffffffffffffffffffffffffffff1673ffffffffffffffffffffffffffffffffffffffff16815260200190815260200160002060008381526020019081526020016000206000905550505050565b600060016008805490506128209190614600565b90506000600960008481526020019081526020016000205490506000600883815481106128505761284f613ab4565b5b90600052602060002001549050806008838154811061287257612871613ab4565b5b9060005260206000200181905550816009600083815260200190815260200160002081905550600960008581526020019081526020016000206000905560088054806128c1576128c0614634565b5b6001900381819060005260206000200160009055905550505050565b60006128e883610e4a565b905081600660008573ffffffffffffffffffffffffffffffffffffffff1673ffffffffffffffffffffffffffffffffffffffff168152602001908152602001600020600083815260200190815260200160002081905550806007600084815260200190815260200160002081905550505050565b60606129828273ffffffffffffffffffffffffffffffffffffffff16601460ff16612989565b9050919050565b60606000600283600261299c9190614663565b6129a691906146a5565b67ffffffffffffffff8111156129bf576129be6132af565b5b6040519080825280601f01601f1916602001820160405280156129f15781602001600182028036833780820191505090505b5090507f300000000000000000000000000000000000000000000000000000000000000081600081518110612a2957612a28613ab4565b5b60200101907effffffffffffffffffffffffffffffffffffffffffffffffffffffffffffff1916908160001a9053507f780000000000000000000000000000000000000000000000000000000000000081600181518110612a8d57612a8c613ab4565b5b60200101907effffffffffffffffffffffffffffffffffffffffffffffffffffffffffffff1916908160001a90535060006001846002612acd9190614663565b612ad791906146a5565b90505b6001811115612b77577f3031323334353637383961626364656600000000000000000000000000000000600f861660108110612b1957612b18613ab4565b5b1a60f81b828281518110612b3057612b2f613ab4565b5b60200101907effffffffffffffffffffffffffffffffffffffffffffffffffffffffffffff1916908160001a905350600485901c945080612b70906146d9565b9050612ada565b5060008414612bbb576040517f08c379a0000000000000000000000000000000000000000000000000000000008152600401612bb29061474e565b60405180910390fd5b8091505092915050565b6000808273ffffffffffffffffffffffffffffffffffffffff163b119050919050565b600073ffffffffffffffffffffffffffffffffffffffff168273ffffffffffffffffffffffffffffffffffffffff1603612c57576040517f08c379a0000000000000000000000000000000000000000000000000000000008152600401612c4e906147ba565b60405180910390fd5b612c608161200f565b15612ca0576040517f08c379a0000000000000000000000000000000000000000000000000000000008152600401612c9790614826565b60405180910390fd5b612cae600083836001612050565b612cb78161200f565b15612cf7576040517f08c379a0000000000000000000000000000000000000000000000000000000008152600401612cee90614826565b60405180910390fd5b6001600360008473ffffffffffffffffffffffffffffffffffffffff1673ffffffffffffffffffffffffffffffffffffffff16815260200190815260200160002060008282540192505081905550816002600083815260200190815260200160002060006101000a81548173ffffffffffffffffffffffffffffffffffffffff021916908373ffffffffffffffffffffffffffffffffffffffff160217905550808273ffffffffffffffffffffffffffffffffffffffff16600073ffffffffffffffffffffffffffffffffffffffff167fddf252ad1be2c89b69c2b068fc378daa952ba7f163c4a11628f55a4df523b3ef60405160405180910390a4612e016000838360016121ae565b5050565b60007f01ffc9a7000000000000000000000000000000000000000000000000000000007bffffffffffffffffffffffffffffffffffffffffffffffffffffffff1916827bffffffffffffffffffffffffffffffffffffffffffffffffffffffff1916149050919050565b6000604051905090565b600080fd5b600080fd5b60007fffffffff0000000000000000000000000000000000000000000000000000000082169050919050565b612eb881612e83565b8114612ec357600080fd5b50565b600081359050612ed581612eaf565b92915050565b600060208284031215612ef157612ef0612e79565b5b6000612eff84828501612ec6565b91505092915050565b60008115159050919050565b612f1d81612f08565b82525050565b6000602082019050612f386000830184612f14565b92915050565b600081519050919050565b600082825260208201905092915050565b60005b83811015612f78578082015181840152602081019050612f5d565b60008484015250505050565b6000601f19601f8301169050919050565b6000612fa082612f3e565b612faa8185612f49565b9350612fba818560208601612f5a565b612fc381612f84565b840191505092915050565b60006020820190508181036000830152612fe88184612f95565b905092915050565b6000819050919050565b61300381612ff0565b811461300e57600080fd5b50565b60008135905061302081612ffa565b92915050565b60006020828403121561303c5761303b612e79565b5b600061304a84828501613011565b91505092915050565b600073ffffffffffffffffffffffffffffffffffffffff82169050919050565b600061307e82613053565b9050919050565b61308e81613073565b82525050565b60006020820190506130a96000830184613085565b92915050565b6130b881613073565b81146130c357600080fd5b50565b6000813590506130d5816130af565b92915050565b600080604083850312156130f2576130f1612e79565b5b6000613100858286016130c6565b925050602061311185828601613011565b9150509250929050565b61312481612ff0565b82525050565b600060208201905061313f600083018461311b565b92915050565b60008060006060848603121561315e5761315d612e79565b5b600061316c868287016130c6565b935050602061317d868287016130c6565b925050604061318e86828701613011565b9150509250925092565b6000819050919050565b6131ab81613198565b81146131b657600080fd5b50565b6000813590506131c8816131a2565b92915050565b6000602082840312156131e4576131e3612e79565b5b60006131f2848285016131b9565b91505092915050565b61320481613198565b82525050565b600060208201905061321f60008301846131fb565b92915050565b6000806040838503121561323c5761323b612e79565b5b600061324a858286016131b9565b925050602061325b858286016130c6565b9150509250929050565b6000806040838503121561327c5761327b612e79565b5b600061328a85828601613011565b925050602061329b85828601613011565b9150509250929050565b600080fd5b600080fd5b7f4e487b7100000000000000000000000000000000000000000000000000000000600052604160045260246000fd5b6132e782612f84565b810181811067ffffffffffffffff82111715613306576133056132af565b5b80604052505050565b6000613319612e6f565b905061332582826132de565b919050565b600067ffffffffffffffff821115613345576133446132af565b5b61334e82612f84565b9050602081019050919050565b82818337600083830152505050565b600061337d6133788461332a565b61330f565b905082815260208101848484011115613399576133986132aa565b5b6133a484828561335b565b509392505050565b600082601f8301126133c1576133c06132a5565b5b81356133d184826020860161336a565b91505092915050565b6000602082840312156133f0576133ef612e79565b5b600082013567ffffffffffffffff81111561340e5761340d612e7e565b5b61341a848285016133ac565b91505092915050565b60006020828403121561343957613438612e79565b5b6000613447848285016130c6565b91505092915050565b61345981612f08565b811461346457600080fd5b50565b60008135905061347681613450565b92915050565b6000806040838503121561349357613492612e79565b5b60006134a1858286016130c6565b92505060206134b285828601613467565b9150509250929050565b600067ffffffffffffffff8211156134d7576134d66132af565b5b6134e082612f84565b9050602081019050919050565b60006135006134fb846134bc565b61330f565b90508281526020810184848401111561351c5761351b6132aa565b5b61352784828561335b565b509392505050565b600082601f830112613544576135436132a5565b5b81356135548482602086016134ed565b91505092915050565b6000806000806080858703121561357757613576612e79565b5b6000613585878288016130c6565b9450506020613596878288016130c6565b93505060406135a787828801613011565b925050606085013567ffffffffffffffff8111156135c8576135c7612e7e565b5b6135d48782880161352f565b91505092959194509250565b600080604083850312156135f7576135f6612e79565b5b6000613605858286016130c6565b9250506020613616858286016130c6565b9150509250929050565b6000806040838503121561363757613636612e79565b5b600061364585828601613011565b925050602083013567ffffffffffffffff81111561366657613665612e7e565b5b613672858286016133ac565b9150509250929050565b7f4e487b7100000000000000000000000000000000000000000000000000000000600052602260045260246000fd5b600060028204905060018216806136c357607f821691505b6020821081036136d6576136d561367c565b5b50919050565b7f4552433732313a20617070726f76616c20746f2063757272656e74206f776e6560008201527f7200000000000000000000000000000000000000000000000000000000000000602082015250565b6000613738602183612f49565b9150613743826136dc565b604082019050919050565b600060208201905081810360008301526137678161372b565b9050919050565b7f4552433732313a20617070726f76652063616c6c6572206973206e6f7420746f60008201527f6b656e206f776e6572206f7220617070726f76656420666f7220616c6c000000602082015250565b60006137ca603d83612f49565b91506137d58261376e565b604082019050919050565b600060208201905081810360008301526137f9816137bd565b9050919050565b7f4552433732313a2063616c6c6572206973206e6f7420746f6b656e206f776e6560008201527f72206f7220617070726f76656400000000000000000000000000000000000000602082015250565b600061385c602d83612f49565b915061386782613800565b604082019050919050565b6000602082019050818103600083015261388b8161384f565b9050919050565b7f455243373231456e756d657261626c653a206f776e657220696e646578206f7560008201527f74206f6620626f756e6473000000000000000000000000000000000000000000602082015250565b60006138ee602b83612f49565b91506138f982613892565b604082019050919050565b6000602082019050818103600083015261391d816138e1565b9050919050565b7f416363657373436f6e74726f6c3a2063616e206f6e6c792072656e6f756e636560008201527f20726f6c657320666f722073656c660000000000000000000000000000000000602082015250565b6000613980602f83612f49565b915061398b82613924565b604082019050919050565b600060208201905081810360008301526139af81613973565b9050919050565b7f4b696e6420646f6573206e6f7420657869737473000000000000000000000000600082015250565b60006139ec601483612f49565b91506139f7826139b6565b602082019050919050565b60006020820190508181036000830152613a1b816139df565b9050919050565b7f455243373231456e756d657261626c653a20676c6f62616c20696e646578206f60008201527f7574206f6620626f756e64730000000000000000000000000000000000000000602082015250565b6000613a7e602c83612f49565b9150613a8982613a22565b604082019050919050565b60006020820190508181036000830152613aad81613a71565b9050919050565b7f4e487b7100000000000000000000000000000000000000000000000000000000600052603260045260246000fd5b7f6e6565642044454641554c545f41444d494e5f524f4c45000000000000000000600082015250565b6000613b19601783612f49565b9150613b2482613ae3565b602082019050919050565b60006020820190508181036000830152613b4881613b0c565b9050919050565b60008190508160005260206000209050919050565b60006020601f8301049050919050565b600082821b905092915050565b600060088302613bb17fffffffffffffffffffffffffffffffffffffffffffffffffffffffffffffffff82613b74565b613bbb8683613b74565b95508019841693508086168417925050509392505050565b6000819050919050565b6000613bf8613bf3613bee84612ff0565b613bd3565b612ff0565b9050919050565b6000819050919050565b613c1283613bdd565b613c26613c1e82613bff565b848454613b81565b825550505050565b600090565b613c3b613c2e565b613c46818484613c09565b505050565b5b81811015613c6a57613c5f600082613c33565b600181019050613c4c565b5050565b601f821115613caf57613c8081613b4f565b613c8984613b64565b81016020851015613c98578190505b613cac613ca485613b64565b830182613c4b565b50505b505050565b600082821c905092915050565b6000613cd260001984600802613cb4565b1980831691505092915050565b6000613ceb8383613cc1565b9150826002028217905092915050565b613d0482612f3e565b67ffffffffffffffff811115613d1d57613d1c6132af565b5b613d2782546136ab565b613d32828285613c6e565b600060209050601f831160018114613d655760008415613d53578287015190505b613d5d8582613cdf565b865550613dc5565b601f198416613d7386613b4f565b60005b82811015613d9b57848901518255600182019150602085019450602081019050613d76565b86831015613db85784890151613db4601f891682613cc1565b8355505b6001600288020188555050505b505050505050565b7f4552433732313a20696e76616c696420746f6b656e2049440000000000000000600082015250565b6000613e03601883612f49565b9150613e0e82613dcd565b602082019050919050565b60006020820190508181036000830152613e3281613df6565b9050919050565b7f4552433732313a2061646472657373207a65726f206973206e6f74206120766160008201527f6c6964206f776e65720000000000000000000000000000000000000000000000602082015250565b6000613e95602983612f49565b9150613ea082613e39565b604082019050919050565b60006020820190508181036000830152613ec481613e88565b9050919050565b600081905092915050565b6000613ee182612f3e565b613eeb8185613ecb565b9350613efb818560208601612f5a565b80840191505092915050565b7f2f00000000000000000000000000000000000000000000000000000000000000600082015250565b6000613f3d600183613ecb565b9150613f4882613f07565b600182019050919050565b7f2e6a736f6e000000000000000000000000000000000000000000000000000000600082015250565b6000613f89600583613ecb565b9150613f9482613f53565b600582019050919050565b6000613fab8285613ed6565b9150613fb682613f30565b9150613fc28284613ed6565b9150613fcd82613f7c565b91508190509392505050565b7f6e656564204d494e5445525f524f4c4500000000000000000000000000000000600082015250565b600061400f601083612f49565b915061401a82613fd9565b602082019050919050565b6000602082019050818103600083015261403e81614002565b9050919050565b7f4e487b7100000000000000000000000000000000000000000000000000000000600052601160045260246000fd5b600061407f82612ff0565b91507fffffffffffffffffffffffffffffffffffffffffffffffffffffffffffffffff82036140b1576140b0614045565b5b600182019050919050565b7f4b696e6420616c72656164792065786973747300000000000000000000000000600082015250565b60006140f2601383612f49565b91506140fd826140bc565b602082019050919050565b60006020820190508181036000830152614121816140e5565b9050919050565b60006141348284613ed6565b915081905092915050565b6000604082019050614154600083018561311b565b61416160208301846131fb565b9392505050565b7f4552433732313a207472616e736665722066726f6d20696e636f72726563742060008201527f6f776e6572000000000000000000000000000000000000000000000000000000602082015250565b60006141c4602583612f49565b91506141cf82614168565b604082019050919050565b600060208201905081810360008301526141f3816141b7565b9050919050565b7f4552433732313a207472616e7366657220746f20746865207a65726f2061646460008201527f7265737300000000000000000000000000000000000000000000000000000000602082015250565b6000614256602483612f49565b9150614261826141fa565b604082019050919050565b6000602082019050818103600083015261428581614249565b9050919050565b7f4552433732313a20617070726f766520746f2063616c6c657200000000000000600082015250565b60006142c2601983612f49565b91506142cd8261428c565b602082019050919050565b600060208201905081810360008301526142f1816142b5565b9050919050565b7f4552433732313a207472616e7366657220746f206e6f6e20455243373231526560008201527f63656976657220696d706c656d656e7465720000000000000000000000000000602082015250565b6000614354603283612f49565b915061435f826142f8565b604082019050919050565b6000602082019050818103600083015261438381614347565b9050919050565b7f4e487b7100000000000000000000000000000000000000000000000000000000600052601260045260246000fd5b7f455243373231456e756d657261626c653a20636f6e736563757469766520747260008201527f616e7366657273206e6f7420737570706f727465640000000000000000000000602082015250565b6000614415603583612f49565b9150614420826143b9565b604082019050919050565b6000602082019050818103600083015261444481614408565b9050919050565b7f416363657373436f6e74726f6c3a206163636f756e7420000000000000000000600082015250565b6000614481601783613ecb565b915061448c8261444b565b601782019050919050565b7f206973206d697373696e6720726f6c6520000000000000000000000000000000600082015250565b60006144cd601183613ecb565b91506144d882614497565b601182019050919050565b60006144ee82614474565b91506144fa8285613ed6565b9150614505826144c0565b91506145118284613ed6565b91508190509392505050565b600081519050919050565b600082825260208201905092915050565b60006145448261451d565b61454e8185614528565b935061455e818560208601612f5a565b61456781612f84565b840191505092915050565b60006080820190506145876000830187613085565b6145946020830186613085565b6145a1604083018561311b565b81810360608301526145b38184614539565b905095945050505050565b6000815190506145cd81612eaf565b92915050565b6000602082840312156145e9576145e8612e79565b5b60006145f7848285016145be565b91505092915050565b600061460b82612ff0565b915061461683612ff0565b925082820390508181111561462e5761462d614045565b5b92915050565b7f4e487b7100000000000000000000000000000000000000000000000000000000600052603160045260246000fd5b600061466e82612ff0565b915061467983612ff0565b925082820261468781612ff0565b9150828204841483151761469e5761469d614045565b5b5092915050565b60006146b082612ff0565b91506146bb83612ff0565b92508282019050808211156146d3576146d2614045565b5b92915050565b60006146e482612ff0565b9150600082036146f7576146f6614045565b5b600182039050919050565b7f537472696e67733a20686578206c656e67746820696e73756666696369656e74600082015250565b6000614738602083612f49565b915061474382614702565b602082019050919050565b600060208201905081810360008301526147678161472b565b9050919050565b7f4552433732313a206d696e7420746f20746865207a65726f2061646472657373600082015250565b60006147a4602083612f49565b91506147af8261476e565b602082019050919050565b600060208201905081810360008301526147d381614797565b9050919050565b7f4552433732313a20746f6b656e20616c7265616479206d696e74656400000000600082015250565b6000614810601c83612f49565b915061481b826147da565b602082019050919050565b6000602082019050818103600083015261483f81614803565b905091905056fea2646970667358221220d64b42f34c15c88d273f724602609a33943f2369308ec8c10c1a382a2feca3e164736f6c63430008120033",
  "devdoc": {
    "events": {
      "Approval(address,address,uint256)": {
        "details": "Emitted when `owner` enables `approved` to manage the `tokenId` token."
      },
      "ApprovalForAll(address,address,bool)": {
        "details": "Emitted when `owner` enables or disables (`approved`) `operator` to manage all of its assets."
      },
      "RoleAdminChanged(bytes32,bytes32,bytes32)": {
        "details": "Emitted when `newAdminRole` is set as ``role``'s admin role, replacing `previousAdminRole` `DEFAULT_ADMIN_ROLE` is the starting admin for all roles, despite {RoleAdminChanged} not being emitted signaling this. _Available since v3.1._"
      },
      "RoleGranted(bytes32,address,address)": {
        "details": "Emitted when `account` is granted `role`. `sender` is the account that originated the contract call, an admin role bearer except when using {AccessControl-_setupRole}."
      },
      "RoleRevoked(bytes32,address,address)": {
        "details": "Emitted when `account` is revoked `role`. `sender` is the account that originated the contract call:   - if using `revokeRole`, it is the admin role bearer   - if using `renounceRole`, it is the role bearer (i.e. `account`)"
      },
      "Transfer(address,address,uint256)": {
        "details": "Emitted when `tokenId` token is transferred from `from` to `to`."
      }
    },
    "kind": "dev",
    "methods": {
      "approve(address,uint256)": {
        "details": "See {IERC721-approve}."
      },
      "balanceOf(address)": {
        "details": "See {IERC721-balanceOf}."
      },
      "getApproved(uint256)": {
        "details": "See {IERC721-getApproved}."
      },
      "getRoleAdmin(bytes32)": {
        "details": "Returns the admin role that controls `role`. See {grantRole} and {revokeRole}. To change a role's admin, use {_setRoleAdmin}."
      },
      "grantRole(bytes32,address)": {
        "details": "Grants `role` to `account`. If `account` had not been already granted `role`, emits a {RoleGranted} event. Requirements: - the caller must have ``role``'s admin role. May emit a {RoleGranted} event."
      },
      "hasRole(bytes32,address)": {
        "details": "Returns `true` if `account` has been granted `role`."
      },
      "isApprovedForAll(address,address)": {
        "details": "See {IERC721-isApprovedForAll}."
      },
      "name()": {
        "details": "See {IERC721Metadata-name}."
      },
      "ownerOf(uint256)": {
        "details": "See {IERC721-ownerOf}."
      },
      "renounceRole(bytes32,address)": {
        "details": "Revokes `role` from the calling account. Roles are often managed via {grantRole} and {revokeRole}: this function's purpose is to provide a mechanism for accounts to lose their privileges if they are compromised (such as when a trusted device is misplaced). If the calling account had been revoked `role`, emits a {RoleRevoked} event. Requirements: - the caller must be `account`. May emit a {RoleRevoked} event."
      },
      "revokeRole(bytes32,address)": {
        "details": "Revokes `role` from `account`. If `account` had been granted `role`, emits a {RoleRevoked} event. Requirements: - the caller must have ``role``'s admin role. May emit a {RoleRevoked} event."
      },
      "safeTransferFrom(address,address,uint256)": {
        "details": "See {IERC721-safeTransferFrom}."
      },
      "safeTransferFrom(address,address,uint256,bytes)": {
        "details": "See {IERC721-safeTransferFrom}."
      },
      "setApprovalForAll(address,bool)": {
        "details": "See {IERC721-setApprovalForAll}."
      },
      "symbol()": {
        "details": "See {IERC721Metadata-symbol}."
      },
      "tokenByIndex(uint256)": {
        "details": "See {IERC721Enumerable-tokenByIndex}."
      },
      "tokenOfOwnerByIndex(address,uint256)": {
        "details": "See {IERC721Enumerable-tokenOfOwnerByIndex}."
      },
      "tokenURI(uint256)": {
        "details": "See {IERC721Metadata-tokenURI}."
      },
      "totalSupply()": {
        "details": "See {IERC721Enumerable-totalSupply}."
      },
      "transferFrom(address,address,uint256)": {
        "details": "See {IERC721-transferFrom}."
      }
    },
    "version": 1
  },
  "userdoc": {
    "kind": "user",
    "methods": {},
    "version": 1
  },
  "storageLayout": {
    "storage": [
      {
        "astId": 1104,
        "contract": "contracts/EtherLuxeCollection.sol:EtherLuxeCollectionCharacters",
        "label": "_name",
        "offset": 0,
        "slot": "0",
        "type": "t_string_storage"
      },
      {
        "astId": 1106,
        "contract": "contracts/EtherLuxeCollection.sol:EtherLuxeCollectionCharacters",
        "label": "_symbol",
        "offset": 0,
        "slot": "1",
        "type": "t_string_storage"
      },
      {
        "astId": 1110,
        "contract": "contracts/EtherLuxeCollection.sol:EtherLuxeCollectionCharacters",
        "label": "_owners",
        "offset": 0,
        "slot": "2",
        "type": "t_mapping(t_uint256,t_address)"
      },
      {
        "astId": 1114,
        "contract": "contracts/EtherLuxeCollection.sol:EtherLuxeCollectionCharacters",
        "label": "_balances",
        "offset": 0,
        "slot": "3",
        "type": "t_mapping(t_address,t_uint256)"
      },
      {
        "astId": 1118,
        "contract": "contracts/EtherLuxeCollection.sol:EtherLuxeCollectionCharacters",
        "label": "_tokenApprovals",
        "offset": 0,
        "slot": "4",
        "type": "t_mapping(t_uint256,t_address)"
      },
      {
        "astId": 1124,
        "contract": "contracts/EtherLuxeCollection.sol:EtherLuxeCollectionCharacters",
        "label": "_operatorApprovals",
        "offset": 0,
        "slot": "5",
        "type": "t_mapping(t_address,t_mapping(t_address,t_bool))"
      },
      {
        "astId": 2154,
        "contract": "contracts/EtherLuxeCollection.sol:EtherLuxeCollectionCharacters",
        "label": "_ownedTokens",
        "offset": 0,
        "slot": "6",
        "type": "t_mapping(t_address,t_mapping(t_uint256,t_uint256))"
      },
      {
        "astId": 2158,
        "contract": "contracts/EtherLuxeCollection.sol:EtherLuxeCollectionCharacters",
        "label": "_ownedTokensIndex",
        "offset": 0,
        "slot": "7",
        "type": "t_mapping(t_uint256,t_uint256)"
      },
      {
        "astId": 2161,
        "contract": "contracts/EtherLuxeCollection.sol:EtherLuxeCollectionCharacters",
        "label": "_allTokens",
        "offset": 0,
        "slot": "8",
        "type": "t_array(t_uint256)dyn_storage"
      },
      {
        "astId": 2165,
        "contract": "contracts/EtherLuxeCollection.sol:EtherLuxeCollectionCharacters",
        "label": "_allTokensIndex",
        "offset": 0,
        "slot": "9",
        "type": "t_mapping(t_uint256,t_uint256)"
      },
      {
        "astId": 24,
        "contract": "contracts/EtherLuxeCollection.sol:EtherLuxeCollectionCharacters",
        "label": "_roles",
        "offset": 0,
        "slot": "10",
        "type": "t_mapping(t_bytes32,t_struct(RoleData)19_storage)"
      },
      {
        "astId": 3998,
        "contract": "contracts/EtherLuxeCollection.sol:EtherLuxeCollectionCharacters",
        "label": "kindSupplies",
        "offset": 0,
        "slot": "11",
        "type": "t_mapping(t_uint256,t_uint256)"
      },
      {
        "astId": 4002,
        "contract": "contracts/EtherLuxeCollection.sol:EtherLuxeCollectionCharacters",
        "label": "kindHashes",
        "offset": 0,
        "slot": "12",
        "type": "t_mapping(t_uint256,t_bytes32)"
      },
      {
        "astId": 4006,
        "contract": "contracts/EtherLuxeCollection.sol:EtherLuxeCollectionCharacters",
        "label": "kindNames",
        "offset": 0,
        "slot": "13",
        "type": "t_mapping(t_bytes32,t_string_storage)"
      },
      {
        "astId": 4013,
        "contract": "contracts/EtherLuxeCollection.sol:EtherLuxeCollectionCharacters",
        "label": "_baseUri",
        "offset": 0,
        "slot": "14",
        "type": "t_string_storage"
      }
    ],
    "types": {
      "t_address": {
        "encoding": "inplace",
        "label": "address",
        "numberOfBytes": "20"
      },
      "t_array(t_uint256)dyn_storage": {
        "base": "t_uint256",
        "encoding": "dynamic_array",
        "label": "uint256[]",
        "numberOfBytes": "32"
      },
      "t_bool": {
        "encoding": "inplace",
        "label": "bool",
        "numberOfBytes": "1"
      },
      "t_bytes32": {
        "encoding": "inplace",
        "label": "bytes32",
        "numberOfBytes": "32"
      },
      "t_mapping(t_address,t_bool)": {
        "encoding": "mapping",
        "key": "t_address",
        "label": "mapping(address => bool)",
        "numberOfBytes": "32",
        "value": "t_bool"
      },
      "t_mapping(t_address,t_mapping(t_address,t_bool))": {
        "encoding": "mapping",
        "key": "t_address",
        "label": "mapping(address => mapping(address => bool))",
        "numberOfBytes": "32",
        "value": "t_mapping(t_address,t_bool)"
      },
      "t_mapping(t_address,t_mapping(t_uint256,t_uint256))": {
        "encoding": "mapping",
        "key": "t_address",
        "label": "mapping(address => mapping(uint256 => uint256))",
        "numberOfBytes": "32",
        "value": "t_mapping(t_uint256,t_uint256)"
      },
      "t_mapping(t_address,t_uint256)": {
        "encoding": "mapping",
        "key": "t_address",
        "label": "mapping(address => uint256)",
        "numberOfBytes": "32",
        "value": "t_uint256"
      },
      "t_mapping(t_bytes32,t_string_storage)": {
        "encoding": "mapping",
        "key": "t_bytes32",
        "label": "mapping(bytes32 => string)",
        "numberOfBytes": "32",
        "value": "t_string_storage"
      },
      "t_mapping(t_bytes32,t_struct(RoleData)19_storage)": {
        "encoding": "mapping",
        "key": "t_bytes32",
        "label": "mapping(bytes32 => struct AccessControl.RoleData)",
        "numberOfBytes": "32",
        "value": "t_struct(RoleData)19_storage"
      },
      "t_mapping(t_uint256,t_address)": {
        "encoding": "mapping",
        "key": "t_uint256",
        "label": "mapping(uint256 => address)",
        "numberOfBytes": "32",
        "value": "t_address"
      },
      "t_mapping(t_uint256,t_bytes32)": {
        "encoding": "mapping",
        "key": "t_uint256",
        "label": "mapping(uint256 => bytes32)",
        "numberOfBytes": "32",
        "value": "t_bytes32"
      },
      "t_mapping(t_uint256,t_uint256)": {
        "encoding": "mapping",
        "key": "t_uint256",
        "label": "mapping(uint256 => uint256)",
        "numberOfBytes": "32",
        "value": "t_uint256"
      },
      "t_string_storage": {
        "encoding": "bytes",
        "label": "string",
        "numberOfBytes": "32"
      },
      "t_struct(RoleData)19_storage": {
        "encoding": "inplace",
        "label": "struct AccessControl.RoleData",
        "members": [
          {
            "astId": 16,
            "contract": "contracts/EtherLuxeCollection.sol:EtherLuxeCollectionCharacters",
            "label": "members",
            "offset": 0,
            "slot": "0",
            "type": "t_mapping(t_address,t_bool)"
          },
          {
            "astId": 18,
            "contract": "contracts/EtherLuxeCollection.sol:EtherLuxeCollectionCharacters",
            "label": "adminRole",
            "offset": 0,
            "slot": "1",
            "type": "t_bytes32"
          }
        ],
        "numberOfBytes": "64"
      },
      "t_uint256": {
        "encoding": "inplace",
        "label": "uint256",
        "numberOfBytes": "32"
      }
    }
  }
}