{
  "address": "0xf01898f291d989a29620C6530b7a473291c619Ad",
  "abi": [
    {
      "inputs": [
        {
          "internalType": "string",
          "name": "uri",
          "type": "string"
        },
        {
          "internalType": "string",
          "name": "name",
          "type": "string"
        },
        {
          "internalType": "string",
          "name": "symbol",
          "type": "string"
        }
      ],
      "stateMutability": "nonpayable",
      "type": "constructor"
    },
    {
      "anonymous": false,
      "inputs": [
        {
          "indexed": true,
          "internalType": "address",
          "name": "owner",
          "type": "address"
        },
        {
          "indexed": true,
          "internalType": "address",
          "name": "approved",
          "type": "address"
        },
        {
          "indexed": true,
          "internalType": "uint256",
          "name": "tokenId",
          "type": "uint256"
        }
      ],
      "name": "Approval",
      "type": "event"
    },
    {
      "anonymous": false,
      "inputs": [
        {
          "indexed": true,
          "internalType": "address",
          "name": "owner",
          "type": "address"
        },
        {
          "indexed": true,
          "internalType": "address",
          "name": "operator",
          "type": "address"
        },
        {
          "indexed": false,
          "internalType": "bool",
          "name": "approved",
          "type": "bool"
        }
      ],
      "name": "ApprovalForAll",
      "type": "event"
    },
    {
      "anonymous": false,
      "inputs": [
        {
          "indexed": true,
          "internalType": "bytes32",
          "name": "role",
          "type": "bytes32"
        },
        {
          "indexed": true,
          "internalType": "bytes32",
          "name": "previousAdminRole",
          "type": "bytes32"
        },
        {
          "indexed": true,
          "internalType": "bytes32",
          "name": "newAdminRole",
          "type": "bytes32"
        }
      ],
      "name": "RoleAdminChanged",
      "type": "event"
    },
    {
      "anonymous": false,
      "inputs": [
        {
          "indexed": true,
          "internalType": "bytes32",
          "name": "role",
          "type": "bytes32"
        },
        {
          "indexed": true,
          "internalType": "address",
          "name": "account",
          "type": "address"
        },
        {
          "indexed": true,
          "internalType": "address",
          "name": "sender",
          "type": "address"
        }
      ],
      "name": "RoleGranted",
      "type": "event"
    },
    {
      "anonymous": false,
      "inputs": [
        {
          "indexed": true,
          "internalType": "bytes32",
          "name": "role",
          "type": "bytes32"
        },
        {
          "indexed": true,
          "internalType": "address",
          "name": "account",
          "type": "address"
        },
        {
          "indexed": true,
          "internalType": "address",
          "name": "sender",
          "type": "address"
        }
      ],
      "name": "RoleRevoked",
      "type": "event"
    },
    {
      "anonymous": false,
      "inputs": [
        {
          "indexed": true,
          "internalType": "address",
          "name": "from",
          "type": "address"
        },
        {
          "indexed": true,
          "internalType": "address",
          "name": "to",
          "type": "address"
        },
        {
          "indexed": true,
          "internalType": "uint256",
          "name": "tokenId",
          "type": "uint256"
        }
      ],
      "name": "Transfer",
      "type": "event"
    },
    {
      "inputs": [],
      "name": "DEFAULT_ADMIN_ROLE",
      "outputs": [
        {
          "internalType": "bytes32",
          "name": "",
          "type": "bytes32"
        }
      ],
      "stateMutability": "view",
      "type": "function"
    },
    {
      "inputs": [],
      "name": "MINTER_ROLE",
      "outputs": [
        {
          "internalType": "bytes32",
          "name": "",
          "type": "bytes32"
        }
      ],
      "stateMutability": "view",
      "type": "function"
    },
    {
      "inputs": [],
      "name": "SALE_CONTRACT_ROLE",
      "outputs": [
        {
          "internalType": "bytes32",
          "name": "",
          "type": "bytes32"
        }
      ],
      "stateMutability": "view",
      "type": "function"
    },
    {
      "inputs": [
        {
          "internalType": "uint256",
          "name": "kind",
          "type": "uint256"
        },
        {
          "internalType": "string",
          "name": "kindName",
          "type": "string"
        }
      ],
      "name": "addKind",
      "outputs": [],
      "stateMutability": "nonpayable",
      "type": "function"
    },
    {
      "inputs": [
        {
          "internalType": "address",
          "name": "to",
          "type": "address"
        },
        {
          "internalType": "uint256",
          "name": "tokenId",
          "type": "uint256"
        }
      ],
      "name": "approve",
      "outputs": [],
      "stateMutability": "nonpayable",
      "type": "function"
    },
    {
      "inputs": [
        {
          "internalType": "address",
          "name": "owner",
          "type": "address"
        }
      ],
      "name": "balanceOf",
      "outputs": [
        {
          "internalType": "uint256",
          "name": "",
          "type": "uint256"
        }
      ],
      "stateMutability": "view",
      "type": "function"
    },
    {
      "inputs": [
        {
          "internalType": "uint256",
          "name": "tokenId",
          "type": "uint256"
        }
      ],
      "name": "getApproved",
      "outputs": [
        {
          "internalType": "address",
          "name": "",
          "type": "address"
        }
      ],
      "stateMutability": "view",
      "type": "function"
    },
    {
      "inputs": [
        {
          "internalType": "uint256",
          "name": "id",
          "type": "uint256"
        }
      ],
      "name": "getKind",
      "outputs": [
        {
          "internalType": "uint256",
          "name": "",
          "type": "uint256"
        }
      ],
      "stateMutability": "pure",
      "type": "function"
    },
    {
      "inputs": [
        {
          "internalType": "uint256",
          "name": "kind",
          "type": "uint256"
        }
      ],
      "name": "getKindName",
      "outputs": [
        {
          "internalType": "string",
          "name": "",
          "type": "string"
        }
      ],
      "stateMutability": "view",
      "type": "function"
    },
    {
      "inputs": [
        {
          "internalType": "uint256",
          "name": "id",
          "type": "uint256"
        }
      ],
      "name": "getKindNameById",
      "outputs": [
        {
          "internalType": "string",
          "name": "",
          "type": "string"
        }
      ],
      "stateMutability": "view",
      "type": "function"
    },
    {
      "inputs": [
        {
          "internalType": "uint256",
          "name": "kind",
          "type": "uint256"
        }
      ],
      "name": "getNFTKindSupply",
      "outputs": [
        {
          "internalType": "uint256",
          "name": "",
          "type": "uint256"
        }
      ],
      "stateMutability": "view",
      "type": "function"
    },
    {
      "inputs": [
        {
          "internalType": "bytes32",
          "name": "role",
          "type": "bytes32"
        }
      ],
      "name": "getRoleAdmin",
      "outputs": [
        {
          "internalType": "bytes32",
          "name": "",
          "type": "bytes32"
        }
      ],
      "stateMutability": "view",
      "type": "function"
    },
    {
      "inputs": [
        {
          "internalType": "bytes32",
          "name": "role",
          "type": "bytes32"
        },
        {
          "internalType": "address",
          "name": "account",
          "type": "address"
        }
      ],
      "name": "grantRole",
      "outputs": [],
      "stateMutability": "nonpayable",
      "type": "function"
    },
    {
      "inputs": [
        {
          "internalType": "bytes32",
          "name": "role",
          "type": "bytes32"
        },
        {
          "internalType": "address",
          "name": "account",
          "type": "address"
        }
      ],
      "name": "hasRole",
      "outputs": [
        {
          "internalType": "bool",
          "name": "",
          "type": "bool"
        }
      ],
      "stateMutability": "view",
      "type": "function"
    },
    {
      "inputs": [
        {
          "internalType": "address",
          "name": "owner",
          "type": "address"
        },
        {
          "internalType": "address",
          "name": "operator",
          "type": "address"
        }
      ],
      "name": "isApprovedForAll",
      "outputs": [
        {
          "internalType": "bool",
          "name": "",
          "type": "bool"
        }
      ],
      "stateMutability": "view",
      "type": "function"
    },
    {
      "inputs": [
        {
          "internalType": "uint256",
          "name": "id",
          "type": "uint256"
        },
        {
          "internalType": "uint256",
          "name": "kind",
          "type": "uint256"
        }
      ],
      "name": "isKind",
      "outputs": [
        {
          "internalType": "bool",
          "name": "",
          "type": "bool"
        }
      ],
      "stateMutability": "pure",
      "type": "function"
    },
    {
      "inputs": [
        {
          "internalType": "address",
          "name": "to",
          "type": "address"
        },
        {
          "internalType": "uint256",
          "name": "kind",
          "type": "uint256"
        }
      ],
      "name": "mintKind",
      "outputs": [],
      "stateMutability": "nonpayable",
      "type": "function"
    },
    {
      "inputs": [],
      "name": "name",
      "outputs": [
        {
          "internalType": "string",
          "name": "",
          "type": "string"
        }
      ],
      "stateMutability": "view",
      "type": "function"
    },
    {
      "inputs": [
        {
          "internalType": "uint256",
          "name": "tokenId",
          "type": "uint256"
        }
      ],
      "name": "ownerOf",
      "outputs": [
        {
          "internalType": "address",
          "name": "",
          "type": "address"
        }
      ],
      "stateMutability": "view",
      "type": "function"
    },
    {
      "inputs": [
        {
          "internalType": "bytes32",
          "name": "role",
          "type": "bytes32"
        },
        {
          "internalType": "address",
          "name": "account",
          "type": "address"
        }
      ],
      "name": "renounceRole",
      "outputs": [],
      "stateMutability": "nonpayable",
      "type": "function"
    },
    {
      "inputs": [
        {
          "internalType": "bytes32",
          "name": "role",
          "type": "bytes32"
        },
        {
          "internalType": "address",
          "name": "account",
          "type": "address"
        }
      ],
      "name": "revokeRole",
      "outputs": [],
      "stateMutability": "nonpayable",
      "type": "function"
    },
    {
      "inputs": [
        {
          "internalType": "address",
          "name": "from",
          "type": "address"
        },
        {
          "internalType": "address",
          "name": "to",
          "type": "address"
        },
        {
          "internalType": "uint256",
          "name": "tokenId",
          "type": "uint256"
        }
      ],
      "name": "safeTransferFrom",
      "outputs": [],
      "stateMutability": "nonpayable",
      "type": "function"
    },
    {
      "inputs": [
        {
          "internalType": "address",
          "name": "from",
          "type": "address"
        },
        {
          "internalType": "address",
          "name": "to",
          "type": "address"
        },
        {
          "internalType": "uint256",
          "name": "tokenId",
          "type": "uint256"
        },
        {
          "internalType": "bytes",
          "name": "data",
          "type": "bytes"
        }
      ],
      "name": "safeTransferFrom",
      "outputs": [],
      "stateMutability": "nonpayable",
      "type": "function"
    },
    {
      "inputs": [
        {
          "internalType": "address",
          "name": "operator",
          "type": "address"
        },
        {
          "internalType": "bool",
          "name": "approved",
          "type": "bool"
        }
      ],
      "name": "setApprovalForAll",
      "outputs": [],
      "stateMutability": "nonpayable",
      "type": "function"
    },
    {
      "inputs": [
        {
          "internalType": "string",
          "name": "newUri",
          "type": "string"
        }
      ],
      "name": "setBaseURI",
      "outputs": [],
      "stateMutability": "nonpayable",
      "type": "function"
    },
    {
      "inputs": [
        {
          "internalType": "bytes4",
          "name": "interfaceId",
          "type": "bytes4"
        }
      ],
      "name": "supportsInterface",
      "outputs": [
        {
          "internalType": "bool",
          "name": "",
          "type": "bool"
        }
      ],
      "stateMutability": "view",
      "type": "function"
    },
    {
      "inputs": [],
      "name": "symbol",
      "outputs": [
        {
          "internalType": "string",
          "name": "",
          "type": "string"
        }
      ],
      "stateMutability": "view",
      "type": "function"
    },
    {
      "inputs": [
        {
          "internalType": "uint256",
          "name": "index",
          "type": "uint256"
        }
      ],
      "name": "tokenByIndex",
      "outputs": [
        {
          "internalType": "uint256",
          "name": "",
          "type": "uint256"
        }
      ],
      "stateMutability": "view",
      "type": "function"
    },
    {
      "inputs": [
        {
          "internalType": "address",
          "name": "owner",
          "type": "address"
        },
        {
          "internalType": "uint256",
          "name": "index",
          "type": "uint256"
        }
      ],
      "name": "tokenOfOwnerByIndex",
      "outputs": [
        {
          "internalType": "uint256",
          "name": "",
          "type": "uint256"
        }
      ],
      "stateMutability": "view",
      "type": "function"
    },
    {
      "inputs": [
        {
          "internalType": "uint256",
          "name": "tokenId",
          "type": "uint256"
        }
      ],
      "name": "tokenURI",
      "outputs": [
        {
          "internalType": "string",
          "name": "",
          "type": "string"
        }
      ],
      "stateMutability": "view",
      "type": "function"
    },
    {
      "inputs": [],
      "name": "totalSupply",
      "outputs": [
        {
          "internalType": "uint256",
          "name": "",
          "type": "uint256"
        }
      ],
      "stateMutability": "view",
      "type": "function"
    },
    {
      "inputs": [
        {
          "internalType": "address",
          "name": "from",
          "type": "address"
        },
        {
          "internalType": "address",
          "name": "to",
          "type": "address"
        },
        {
          "internalType": "uint256",
          "name": "tokenId",
          "type": "uint256"
        }
      ],
      "name": "transferFrom",
      "outputs": [],
      "stateMutability": "nonpayable",
      "type": "function"
    }
  ],
  "transactionHash": "0x07e57f474191f82b259159062d518c9feea4535a7bdeb2b90fcc33db2ad2337c",
  "args": [
    "https://api-ether-luxe.definme.com/metadata/weapons",
    "EtherLuxeCollectionWeapons",
    "ELCW"
  ],
  "numDeployments": 2,
  "solcInputHash": "d17945faa57dbcf5d77b5329450e8c77",
  "bytecode": "0x60806040523480156200001157600080fd5b5060405162005046380380620050468339818101604052810190620000379190620003f3565b828282818181600090816200004d9190620006f7565b5080600190816200005f9190620006f7565b50505082600d9081620000739190620006f7565b50620000986000801b6200008c620000e560201b60201c565b620000ed60201b60201c565b620000d97f9f2df0fed2c77648de5860a4cc508cd0818c85b8b8a1ab4ceeef8d981c8956a6620000cd620000e560201b60201c565b620000ed60201b60201c565b505050505050620007de565b600033905090565b620000ff82826200010360201b60201c565b5050565b620001158282620001f560201b60201c565b620001f1576001600a600084815260200190815260200160002060000160008373ffffffffffffffffffffffffffffffffffffffff1673ffffffffffffffffffffffffffffffffffffffff16815260200190815260200160002060006101000a81548160ff02191690831515021790555062000196620000e560201b60201c565b73ffffffffffffffffffffffffffffffffffffffff168173ffffffffffffffffffffffffffffffffffffffff16837f2f8788117e7eff1d82e926ec794901d17c78024a50270940304540a733656f0d60405160405180910390a45b5050565b6000600a600084815260200190815260200160002060000160008373ffffffffffffffffffffffffffffffffffffffff1673ffffffffffffffffffffffffffffffffffffffff16815260200190815260200160002060009054906101000a900460ff16905092915050565b6000604051905090565b600080fd5b600080fd5b600080fd5b600080fd5b6000601f19601f8301169050919050565b7f4e487b7100000000000000000000000000000000000000000000000000000000600052604160045260246000fd5b620002c9826200027e565b810181811067ffffffffffffffff82111715620002eb57620002ea6200028f565b5b80604052505050565b60006200030062000260565b90506200030e8282620002be565b919050565b600067ffffffffffffffff8211156200033157620003306200028f565b5b6200033c826200027e565b9050602081019050919050565b60005b83811015620003695780820151818401526020810190506200034c565b60008484015250505050565b60006200038c620003868462000313565b620002f4565b905082815260208101848484011115620003ab57620003aa62000279565b5b620003b884828562000349565b509392505050565b600082601f830112620003d857620003d762000274565b5b8151620003ea84826020860162000375565b91505092915050565b6000806000606084860312156200040f576200040e6200026a565b5b600084015167ffffffffffffffff81111562000430576200042f6200026f565b5b6200043e86828701620003c0565b935050602084015167ffffffffffffffff8111156200046257620004616200026f565b5b6200047086828701620003c0565b925050604084015167ffffffffffffffff8111156200049457620004936200026f565b5b620004a286828701620003c0565b9150509250925092565b600081519050919050565b7f4e487b7100000000000000000000000000000000000000000000000000000000600052602260045260246000fd5b60006002820490506001821680620004ff57607f821691505b602082108103620005155762000514620004b7565b5b50919050565b60008190508160005260206000209050919050565b60006020601f8301049050919050565b600082821b905092915050565b6000600883026200057f7fffffffffffffffffffffffffffffffffffffffffffffffffffffffffffffffff8262000540565b6200058b868362000540565b95508019841693508086168417925050509392505050565b6000819050919050565b6000819050919050565b6000620005d8620005d2620005cc84620005a3565b620005ad565b620005a3565b9050919050565b6000819050919050565b620005f483620005b7565b6200060c6200060382620005df565b8484546200054d565b825550505050565b600090565b6200062362000614565b62000630818484620005e9565b505050565b5b8181101562000658576200064c60008262000619565b60018101905062000636565b5050565b601f821115620006a75762000671816200051b565b6200067c8462000530565b810160208510156200068c578190505b620006a46200069b8562000530565b83018262000635565b50505b505050565b600082821c905092915050565b6000620006cc60001984600802620006ac565b1980831691505092915050565b6000620006e78383620006b9565b9150826002028217905092915050565b6200070282620004ac565b67ffffffffffffffff8111156200071e576200071d6200028f565b5b6200072a8254620004e6565b620007378282856200065c565b600060209050601f8311600181146200076f57600084156200075a578287015190505b620007668582620006d9565b865550620007d6565b601f1984166200077f866200051b565b60005b82811015620007a95784890151825560018201915060208501945060208101905062000782565b86831015620007c95784890151620007c5601f891682620006b9565b8355505b6001600288020188555050505b505050505050565b61485880620007ee6000396000f3fe608060405234801561001057600080fd5b50600436106101f05760003560e01c80636352211e1161010f578063a926f8c1116100a2578063d547741f11610071578063d547741f14610629578063e985e9c514610645578063eda6779514610675578063f7cc696314610691576101f0565b8063a926f8c11461058f578063b88d4fde146105bf578063c87b56dd146105db578063d53913931461060b576101f0565b806395d89b41116100de57806395d89b4114610507578063a217fddf14610525578063a22cb46514610543578063a77d8c521461055f576101f0565b80636352211e146104475780636ca8fede1461047757806370a08231146104a757806391d14854146104d7576101f0565b80632f2ff15d1161018757806342842e0e1161015657806342842e0e146103af578063492e17fe146103cb5780634f6ccce7146103fb57806355f804b31461042b576101f0565b80632f2ff15d146103175780632f745c591461033357806336568abe1461036357806340fb4cfb1461037f576101f0565b806318160ddd116101c357806318160ddd1461028f57806323b872dd146102ad578063248a9ca3146102c95780632819cc09146102f9576101f0565b806301ffc9a7146101f557806306fdde0314610225578063081812fc14610243578063095ea7b314610273575b600080fd5b61020f600480360381019061020a9190612e22565b6106ad565b60405161021c9190612e6a565b60405180910390f35b61022d6106bf565b60405161023a9190612f15565b60405180910390f35b61025d60048036038101906102589190612f6d565b610751565b60405161026a9190612fdb565b60405180910390f35b61028d60048036038101906102889190613022565b610797565b005b6102976108ae565b6040516102a49190613071565b60405180910390f35b6102c760048036038101906102c2919061308c565b6108bb565b005b6102e360048036038101906102de9190613115565b61091b565b6040516102f09190613151565b60405180910390f35b61030161093b565b60405161030e9190613151565b60405180910390f35b610331600480360381019061032c919061316c565b61095f565b005b61034d60048036038101906103489190613022565b610980565b60405161035a9190613071565b60405180910390f35b61037d6004803603810190610378919061316c565b610a25565b005b61039960048036038101906103949190612f6d565b610aa8565b6040516103a69190612f15565b60405180910390f35b6103c960048036038101906103c4919061308c565b610bfb565b005b6103e560048036038101906103e091906131ac565b610c1b565b6040516103f29190612e6a565b60405180910390f35b61041560048036038101906104109190612f6d565b610c30565b6040516104229190613071565b60405180910390f35b61044560048036038101906104409190613321565b610ca1565b005b610461600480360381019061045c9190612f6d565b610d07565b60405161046e9190612fdb565b60405180910390f35b610491600480360381019061048c9190612f6d565b610d8d565b60405161049e9190613071565b60405180910390f35b6104c160048036038101906104bc919061336a565b610da1565b6040516104ce9190613071565b60405180910390f35b6104f160048036038101906104ec919061316c565b610e58565b6040516104fe9190612e6a565b60405180910390f35b61050f610ec3565b60405161051c9190612f15565b60405180910390f35b61052d610f55565b60405161053a9190613151565b60405180910390f35b61055d600480360381019061055891906133c3565b610f5c565b005b61057960048036038101906105749190612f6d565b610f72565b6040516105869190613071565b60405180910390f35b6105a960048036038101906105a49190612f6d565b610f8f565b6040516105b69190612f15565b60405180910390f35b6105d960048036038101906105d491906134a4565b611034565b005b6105f560048036038101906105f09190612f6d565b611096565b6040516106029190612f15565b60405180910390f35b6106136110fe565b6040516106209190613151565b60405180910390f35b610643600480360381019061063e919061316c565b611122565b005b61065f600480360381019061065a9190613527565b611143565b60405161066c9190612e6a565b60405180910390f35b61068f600480360381019061068a9190613022565b6111d7565b005b6106ab60048036038101906106a69190613567565b61133b565b005b60006106b88261146e565b9050919050565b6060600080546106ce906135f2565b80601f01602080910402602001604051908101604052809291908181526020018280546106fa906135f2565b80156107475780601f1061071c57610100808354040283529160200191610747565b820191906000526020600020905b81548152906001019060200180831161072a57829003601f168201915b5050505050905090565b600061075c826114e8565b6004600083815260200190815260200160002060009054906101000a900473ffffffffffffffffffffffffffffffffffffffff169050919050565b60006107a282610d07565b90508073ffffffffffffffffffffffffffffffffffffffff168373ffffffffffffffffffffffffffffffffffffffff1603610812576040517f08c379a000000000000000000000000000000000000000000000000000000000815260040161080990613695565b60405180910390fd5b8073ffffffffffffffffffffffffffffffffffffffff16610831611533565b73ffffffffffffffffffffffffffffffffffffffff161480610860575061085f8161085a611533565b611143565b5b61089f576040517f08c379a000000000000000000000000000000000000000000000000000000000815260040161089690613727565b60405180910390fd5b6108a9838361153b565b505050565b6000600880549050905090565b6108cc6108c6611533565b826115f4565b61090b576040517f08c379a0000000000000000000000000000000000000000000000000000000008152600401610902906137b9565b60405180910390fd5b610916838383611689565b505050565b6000600a6000838152602001908152602001600020600101549050919050565b7f260e73ed8de32999ed986cb1677271327af97ce552b6ac78aa36772e4df2cf8a81565b6109688261091b565b61097181611982565b61097b8383611996565b505050565b600061098b83610da1565b82106109cc576040517f08c379a00000000000000000000000000000000000000000000000000000000081526004016109c39061384b565b60405180910390fd5b600660008473ffffffffffffffffffffffffffffffffffffffff1673ffffffffffffffffffffffffffffffffffffffff168152602001908152602001600020600083815260200190815260200160002054905092915050565b610a2d611533565b73ffffffffffffffffffffffffffffffffffffffff168173ffffffffffffffffffffffffffffffffffffffff1614610a9a576040517f08c379a0000000000000000000000000000000000000000000000000000000008152600401610a91906138dd565b60405180910390fd5b610aa48282611a77565b5050565b6060604051602001610ab99061392e565b60405160208183030381529060405280519060200120600c6000610adc85610d8d565b8152602001908152602001600020604051602001610afa91906139db565b6040516020818303038152906040528051906020012003610b50576040517f08c379a0000000000000000000000000000000000000000000000000000000008152600401610b4790613a3e565b60405180910390fd5b600c6000610b5d84610d8d565b81526020019081526020016000208054610b76906135f2565b80601f0160208091040260200160405190810160405280929190818152602001828054610ba2906135f2565b8015610bef5780601f10610bc457610100808354040283529160200191610bef565b820191906000526020600020905b815481529060010190602001808311610bd257829003601f168201915b50505050509050919050565b610c1683838360405180602001604052806000815250611034565b505050565b600081610c2784610d8d565b14905092915050565b6000610c3a6108ae565b8210610c7b576040517f08c379a0000000000000000000000000000000000000000000000000000000008152600401610c7290613ad0565b60405180910390fd5b60088281548110610c8f57610c8e613af0565b5b90600052602060002001549050919050565b610cb56000801b610cb0611533565b610e58565b610cf4576040517f08c379a0000000000000000000000000000000000000000000000000000000008152600401610ceb90613b6b565b60405180910390fd5b80600d9081610d039190613d22565b5050565b600080610d1383611b59565b9050600073ffffffffffffffffffffffffffffffffffffffff168173ffffffffffffffffffffffffffffffffffffffff1603610d84576040517f08c379a0000000000000000000000000000000000000000000000000000000008152600401610d7b90613e40565b60405180910390fd5b80915050919050565b600060108263ffff000016901c9050919050565b60008073ffffffffffffffffffffffffffffffffffffffff168273ffffffffffffffffffffffffffffffffffffffff1603610e11576040517f08c379a0000000000000000000000000000000000000000000000000000000008152600401610e0890613ed2565b60405180910390fd5b600360008373ffffffffffffffffffffffffffffffffffffffff1673ffffffffffffffffffffffffffffffffffffffff168152602001908152602001600020549050919050565b6000600a600084815260200190815260200160002060000160008373ffffffffffffffffffffffffffffffffffffffff1673ffffffffffffffffffffffffffffffffffffffff16815260200190815260200160002060009054906101000a900460ff16905092915050565b606060018054610ed2906135f2565b80601f0160208091040260200160405190810160405280929190818152602001828054610efe906135f2565b8015610f4b5780601f10610f2057610100808354040283529160200191610f4b565b820191906000526020600020905b815481529060010190602001808311610f2e57829003601f168201915b5050505050905090565b6000801b81565b610f6e610f67611533565b8383611b96565b5050565b6000600b6000838152602001908152602001600020549050919050565b6060600c60008381526020019081526020016000208054610faf906135f2565b80601f0160208091040260200160405190810160405280929190818152602001828054610fdb906135f2565b80156110285780601f10610ffd57610100808354040283529160200191611028565b820191906000526020600020905b81548152906001019060200180831161100b57829003601f168201915b50505050509050919050565b61104561103f611533565b836115f4565b611084576040517f08c379a000000000000000000000000000000000000000000000000000000000815260040161107b906137b9565b60405180910390fd5b61109084848484611d02565b50505050565b60606110a1826114e8565b60006110ab611d5e565b905060008151116110cb57604051806020016040528060008152506110f6565b806110d584611df0565b6040516020016110e6929190613fbb565b6040516020818303038152906040525b915050919050565b7f9f2df0fed2c77648de5860a4cc508cd0818c85b8b8a1ab4ceeef8d981c8956a681565b61112b8261091b565b61113481611982565b61113e8383611a77565b505050565b6000600560008473ffffffffffffffffffffffffffffffffffffffff1673ffffffffffffffffffffffffffffffffffffffff16815260200190815260200160002060008373ffffffffffffffffffffffffffffffffffffffff1673ffffffffffffffffffffffffffffffffffffffff16815260200190815260200160002060009054906101000a900460ff16905092915050565b6112087f9f2df0fed2c77648de5860a4cc508cd0818c85b8b8a1ab4ceeef8d981c8956a6611203611533565b610e58565b611247576040517f08c379a000000000000000000000000000000000000000000000000000000000815260040161123e90614041565b60405180910390fd5b6040516020016112569061392e565b60405160208183030381529060405280519060200120600c600083815260200190815260200160002060405160200161128f91906139db565b60405160208183030381529060405280519060200120036112e5576040517f08c379a00000000000000000000000000000000000000000000000000000000081526004016112dc90613a3e565b60405180910390fd5b6000600b600083815260200190815260200160002054601083901b179050600b6000838152602001908152602001600020600081548092919061132790614090565b91905055506113368382611ebe565b505050565b61136c7f9f2df0fed2c77648de5860a4cc508cd0818c85b8b8a1ab4ceeef8d981c8956a6611367611533565b610e58565b6113ab576040517f08c379a00000000000000000000000000000000000000000000000000000000081526004016113a290614041565b60405180910390fd5b6040516020016113ba9061392e565b60405160208183030381529060405280519060200120600c60008481526020019081526020016000206040516020016113f391906139db565b6040516020818303038152906040528051906020012014611449576040517f08c379a000000000000000000000000000000000000000000000000000000000815260040161144090614124565b60405180910390fd5b80600c600084815260200190815260200160002090816114699190613d22565b505050565b60007f7965db0b000000000000000000000000000000000000000000000000000000007bffffffffffffffffffffffffffffffffffffffffffffffffffffffff1916827bffffffffffffffffffffffffffffffffffffffffffffffffffffffff191614806114e157506114e082611edc565b5b9050919050565b6114f181611f56565b611530576040517f08c379a000000000000000000000000000000000000000000000000000000000815260040161152790613e40565b60405180910390fd5b50565b600033905090565b816004600083815260200190815260200160002060006101000a81548173ffffffffffffffffffffffffffffffffffffffff021916908373ffffffffffffffffffffffffffffffffffffffff160217905550808273ffffffffffffffffffffffffffffffffffffffff166115ae83610d07565b73ffffffffffffffffffffffffffffffffffffffff167f8c5be1e5ebec7d5bd14f71427d1e84f3dd0314c0f7b2291e5b200ac8c7c3b92560405160405180910390a45050565b60008061160083610d07565b90508073ffffffffffffffffffffffffffffffffffffffff168473ffffffffffffffffffffffffffffffffffffffff16148061164257506116418185611143565b5b8061168057508373ffffffffffffffffffffffffffffffffffffffff1661166884610751565b73ffffffffffffffffffffffffffffffffffffffff16145b91505092915050565b8273ffffffffffffffffffffffffffffffffffffffff166116a982610d07565b73ffffffffffffffffffffffffffffffffffffffff16146116ff576040517f08c379a00000000000000000000000000000000000000000000000000000000081526004016116f6906141b6565b60405180910390fd5b600073ffffffffffffffffffffffffffffffffffffffff168273ffffffffffffffffffffffffffffffffffffffff160361176e576040517f08c379a000000000000000000000000000000000000000000000000000000000815260040161176590614248565b60405180910390fd5b61177b8383836001611f97565b8273ffffffffffffffffffffffffffffffffffffffff1661179b82610d07565b73ffffffffffffffffffffffffffffffffffffffff16146117f1576040517f08c379a00000000000000000000000000000000000000000000000000000000081526004016117e8906141b6565b60405180910390fd5b6004600082815260200190815260200160002060006101000a81549073ffffffffffffffffffffffffffffffffffffffff02191690556001600360008573ffffffffffffffffffffffffffffffffffffffff1673ffffffffffffffffffffffffffffffffffffffff168152602001908152602001600020600082825403925050819055506001600360008473ffffffffffffffffffffffffffffffffffffffff1673ffffffffffffffffffffffffffffffffffffffff16815260200190815260200160002060008282540192505081905550816002600083815260200190815260200160002060006101000a81548173ffffffffffffffffffffffffffffffffffffffff021916908373ffffffffffffffffffffffffffffffffffffffff160217905550808273ffffffffffffffffffffffffffffffffffffffff168473ffffffffffffffffffffffffffffffffffffffff167fddf252ad1be2c89b69c2b068fc378daa952ba7f163c4a11628f55a4df523b3ef60405160405180910390a461197d83838360016120f5565b505050565b6119938161198e611533565b6120fb565b50565b6119a08282610e58565b611a73576001600a600084815260200190815260200160002060000160008373ffffffffffffffffffffffffffffffffffffffff1673ffffffffffffffffffffffffffffffffffffffff16815260200190815260200160002060006101000a81548160ff021916908315150217905550611a18611533565b73ffffffffffffffffffffffffffffffffffffffff168173ffffffffffffffffffffffffffffffffffffffff16837f2f8788117e7eff1d82e926ec794901d17c78024a50270940304540a733656f0d60405160405180910390a45b5050565b611a818282610e58565b15611b55576000600a600084815260200190815260200160002060000160008373ffffffffffffffffffffffffffffffffffffffff1673ffffffffffffffffffffffffffffffffffffffff16815260200190815260200160002060006101000a81548160ff021916908315150217905550611afa611533565b73ffffffffffffffffffffffffffffffffffffffff168173ffffffffffffffffffffffffffffffffffffffff16837ff6391f5c32d9c69d2a47ea670b442974b53935d1edc7fd64eb21e047a839171b60405160405180910390a45b5050565b60006002600083815260200190815260200160002060009054906101000a900473ffffffffffffffffffffffffffffffffffffffff169050919050565b8173ffffffffffffffffffffffffffffffffffffffff168373ffffffffffffffffffffffffffffffffffffffff1603611c04576040517f08c379a0000000000000000000000000000000000000000000000000000000008152600401611bfb906142b4565b60405180910390fd5b80600560008573ffffffffffffffffffffffffffffffffffffffff1673ffffffffffffffffffffffffffffffffffffffff16815260200190815260200160002060008473ffffffffffffffffffffffffffffffffffffffff1673ffffffffffffffffffffffffffffffffffffffff16815260200190815260200160002060006101000a81548160ff0219169083151502179055508173ffffffffffffffffffffffffffffffffffffffff168373ffffffffffffffffffffffffffffffffffffffff167f17307eab39ab6107e8899845ad3d59bd9653f200f220920489ca2b5937696c3183604051611cf59190612e6a565b60405180910390a3505050565b611d0d848484611689565b611d1984848484612180565b611d58576040517f08c379a0000000000000000000000000000000000000000000000000000000008152600401611d4f90614346565b60405180910390fd5b50505050565b6060600d8054611d6d906135f2565b80601f0160208091040260200160405190810160405280929190818152602001828054611d99906135f2565b8015611de65780601f10611dbb57610100808354040283529160200191611de6565b820191906000526020600020905b815481529060010190602001808311611dc957829003601f168201915b5050505050905090565b606060006001611dff84612307565b01905060008167ffffffffffffffff811115611e1e57611e1d6131f6565b5b6040519080825280601f01601f191660200182016040528015611e505781602001600182028036833780820191505090505b509050600082602001820190505b600115611eb3578080600190039150507f3031323334353637383961626364656600000000000000000000000000000000600a86061a8153600a8581611ea757611ea6614366565b5b04945060008503611e5e575b819350505050919050565b611ed882826040518060200160405280600081525061245a565b5050565b60007f780e9d63000000000000000000000000000000000000000000000000000000007bffffffffffffffffffffffffffffffffffffffffffffffffffffffff1916827bffffffffffffffffffffffffffffffffffffffffffffffffffffffff19161480611f4f5750611f4e826124b5565b5b9050919050565b60008073ffffffffffffffffffffffffffffffffffffffff16611f7883611b59565b73ffffffffffffffffffffffffffffffffffffffff1614159050919050565b611fa384848484612597565b6001811115611fe7576040517f08c379a0000000000000000000000000000000000000000000000000000000008152600401611fde90614407565b60405180910390fd5b6000829050600073ffffffffffffffffffffffffffffffffffffffff168573ffffffffffffffffffffffffffffffffffffffff160361202e576120298161259d565b61206d565b8373ffffffffffffffffffffffffffffffffffffffff168573ffffffffffffffffffffffffffffffffffffffff161461206c5761206b85826125e6565b5b5b600073ffffffffffffffffffffffffffffffffffffffff168473ffffffffffffffffffffffffffffffffffffffff16036120af576120aa81612753565b6120ee565b8473ffffffffffffffffffffffffffffffffffffffff168473ffffffffffffffffffffffffffffffffffffffff16146120ed576120ec8482612824565b5b5b5050505050565b50505050565b6121058282610e58565b61217c57612112816128a3565b6121208360001c60206128d0565b6040516020016121319291906144bf565b6040516020818303038152906040526040517f08c379a00000000000000000000000000000000000000000000000000000000081526004016121739190612f15565b60405180910390fd5b5050565b60006121a18473ffffffffffffffffffffffffffffffffffffffff16612b0c565b156122fa578373ffffffffffffffffffffffffffffffffffffffff1663150b7a026121ca611533565b8786866040518563ffffffff1660e01b81526004016121ec949392919061454e565b6020604051808303816000875af192505050801561222857506040513d601f19601f8201168201806040525081019061222591906145af565b60015b6122aa573d8060008114612258576040519150601f19603f3d011682016040523d82523d6000602084013e61225d565b606091505b5060008151036122a2576040517f08c379a000000000000000000000000000000000000000000000000000000000815260040161229990614346565b60405180910390fd5b805181602001fd5b63150b7a0260e01b7bffffffffffffffffffffffffffffffffffffffffffffffffffffffff1916817bffffffffffffffffffffffffffffffffffffffffffffffffffffffff1916149150506122ff565b600190505b949350505050565b600080600090507a184f03e93ff9f4daa797ed6e38ed64bf6a1f0100000000000000008310612365577a184f03e93ff9f4daa797ed6e38ed64bf6a1f010000000000000000838161235b5761235a614366565b5b0492506040810190505b6d04ee2d6d415b85acef810000000083106123a2576d04ee2d6d415b85acef8100000000838161239857612397614366565b5b0492506020810190505b662386f26fc1000083106123d157662386f26fc1000083816123c7576123c6614366565b5b0492506010810190505b6305f5e10083106123fa576305f5e10083816123f0576123ef614366565b5b0492506008810190505b612710831061241f57612710838161241557612414614366565b5b0492506004810190505b60648310612442576064838161243857612437614366565b5b0492506002810190505b600a8310612451576001810190505b80915050919050565b6124648383612b2f565b6124716000848484612180565b6124b0576040517f08c379a00000000000000000000000000000000000000000000000000000000081526004016124a790614346565b60405180910390fd5b505050565b60007f80ac58cd000000000000000000000000000000000000000000000000000000007bffffffffffffffffffffffffffffffffffffffffffffffffffffffff1916827bffffffffffffffffffffffffffffffffffffffffffffffffffffffff1916148061258057507f5b5e139f000000000000000000000000000000000000000000000000000000007bffffffffffffffffffffffffffffffffffffffffffffffffffffffff1916827bffffffffffffffffffffffffffffffffffffffffffffffffffffffff1916145b80612590575061258f82612d4c565b5b9050919050565b50505050565b6008805490506009600083815260200190815260200160002081905550600881908060018154018082558091505060019003906000526020600020016000909190919091505550565b600060016125f384610da1565b6125fd91906145dc565b90506000600760008481526020019081526020016000205490508181146126e2576000600660008673ffffffffffffffffffffffffffffffffffffffff1673ffffffffffffffffffffffffffffffffffffffff168152602001908152602001600020600084815260200190815260200160002054905080600660008773ffffffffffffffffffffffffffffffffffffffff1673ffffffffffffffffffffffffffffffffffffffff168152602001908152602001600020600084815260200190815260200160002081905550816007600083815260200190815260200160002081905550505b6007600084815260200190815260200160002060009055600660008573ffffffffffffffffffffffffffffffffffffffff1673ffffffffffffffffffffffffffffffffffffffff16815260200190815260200160002060008381526020019081526020016000206000905550505050565b6000600160088054905061276791906145dc565b905060006009600084815260200190815260200160002054905060006008838154811061279757612796613af0565b5b9060005260206000200154905080600883815481106127b9576127b8613af0565b5b90600052602060002001819055508160096000838152602001908152602001600020819055506009600085815260200190815260200160002060009055600880548061280857612807614610565b5b6001900381819060005260206000200160009055905550505050565b600061282f83610da1565b905081600660008573ffffffffffffffffffffffffffffffffffffffff1673ffffffffffffffffffffffffffffffffffffffff168152602001908152602001600020600083815260200190815260200160002081905550806007600084815260200190815260200160002081905550505050565b60606128c98273ffffffffffffffffffffffffffffffffffffffff16601460ff166128d0565b9050919050565b6060600060028360026128e3919061463f565b6128ed9190614681565b67ffffffffffffffff811115612906576129056131f6565b5b6040519080825280601f01601f1916602001820160405280156129385781602001600182028036833780820191505090505b5090507f3000000000000000000000000000000000000000000000000000000000000000816000815181106129705761296f613af0565b5b60200101907effffffffffffffffffffffffffffffffffffffffffffffffffffffffffffff1916908160001a9053507f7800000000000000000000000000000000000000000000000000000000000000816001815181106129d4576129d3613af0565b5b60200101907effffffffffffffffffffffffffffffffffffffffffffffffffffffffffffff1916908160001a90535060006001846002612a14919061463f565b612a1e9190614681565b90505b6001811115612abe577f3031323334353637383961626364656600000000000000000000000000000000600f861660108110612a6057612a5f613af0565b5b1a60f81b828281518110612a7757612a76613af0565b5b60200101907effffffffffffffffffffffffffffffffffffffffffffffffffffffffffffff1916908160001a905350600485901c945080612ab7906146b5565b9050612a21565b5060008414612b02576040517f08c379a0000000000000000000000000000000000000000000000000000000008152600401612af99061472a565b60405180910390fd5b8091505092915050565b6000808273ffffffffffffffffffffffffffffffffffffffff163b119050919050565b600073ffffffffffffffffffffffffffffffffffffffff168273ffffffffffffffffffffffffffffffffffffffff1603612b9e576040517f08c379a0000000000000000000000000000000000000000000000000000000008152600401612b9590614796565b60405180910390fd5b612ba781611f56565b15612be7576040517f08c379a0000000000000000000000000000000000000000000000000000000008152600401612bde90614802565b60405180910390fd5b612bf5600083836001611f97565b612bfe81611f56565b15612c3e576040517f08c379a0000000000000000000000000000000000000000000000000000000008152600401612c3590614802565b60405180910390fd5b6001600360008473ffffffffffffffffffffffffffffffffffffffff1673ffffffffffffffffffffffffffffffffffffffff16815260200190815260200160002060008282540192505081905550816002600083815260200190815260200160002060006101000a81548173ffffffffffffffffffffffffffffffffffffffff021916908373ffffffffffffffffffffffffffffffffffffffff160217905550808273ffffffffffffffffffffffffffffffffffffffff16600073ffffffffffffffffffffffffffffffffffffffff167fddf252ad1be2c89b69c2b068fc378daa952ba7f163c4a11628f55a4df523b3ef60405160405180910390a4612d486000838360016120f5565b5050565b60007f01ffc9a7000000000000000000000000000000000000000000000000000000007bffffffffffffffffffffffffffffffffffffffffffffffffffffffff1916827bffffffffffffffffffffffffffffffffffffffffffffffffffffffff1916149050919050565b6000604051905090565b600080fd5b600080fd5b60007fffffffff0000000000000000000000000000000000000000000000000000000082169050919050565b612dff81612dca565b8114612e0a57600080fd5b50565b600081359050612e1c81612df6565b92915050565b600060208284031215612e3857612e37612dc0565b5b6000612e4684828501612e0d565b91505092915050565b60008115159050919050565b612e6481612e4f565b82525050565b6000602082019050612e7f6000830184612e5b565b92915050565b600081519050919050565b600082825260208201905092915050565b60005b83811015612ebf578082015181840152602081019050612ea4565b60008484015250505050565b6000601f19601f8301169050919050565b6000612ee782612e85565b612ef18185612e90565b9350612f01818560208601612ea1565b612f0a81612ecb565b840191505092915050565b60006020820190508181036000830152612f2f8184612edc565b905092915050565b6000819050919050565b612f4a81612f37565b8114612f5557600080fd5b50565b600081359050612f6781612f41565b92915050565b600060208284031215612f8357612f82612dc0565b5b6000612f9184828501612f58565b91505092915050565b600073ffffffffffffffffffffffffffffffffffffffff82169050919050565b6000612fc582612f9a565b9050919050565b612fd581612fba565b82525050565b6000602082019050612ff06000830184612fcc565b92915050565b612fff81612fba565b811461300a57600080fd5b50565b60008135905061301c81612ff6565b92915050565b6000806040838503121561303957613038612dc0565b5b60006130478582860161300d565b925050602061305885828601612f58565b9150509250929050565b61306b81612f37565b82525050565b60006020820190506130866000830184613062565b92915050565b6000806000606084860312156130a5576130a4612dc0565b5b60006130b38682870161300d565b93505060206130c48682870161300d565b92505060406130d586828701612f58565b9150509250925092565b6000819050919050565b6130f2816130df565b81146130fd57600080fd5b50565b60008135905061310f816130e9565b92915050565b60006020828403121561312b5761312a612dc0565b5b600061313984828501613100565b91505092915050565b61314b816130df565b82525050565b60006020820190506131666000830184613142565b92915050565b6000806040838503121561318357613182612dc0565b5b600061319185828601613100565b92505060206131a28582860161300d565b9150509250929050565b600080604083850312156131c3576131c2612dc0565b5b60006131d185828601612f58565b92505060206131e285828601612f58565b9150509250929050565b600080fd5b600080fd5b7f4e487b7100000000000000000000000000000000000000000000000000000000600052604160045260246000fd5b61322e82612ecb565b810181811067ffffffffffffffff8211171561324d5761324c6131f6565b5b80604052505050565b6000613260612db6565b905061326c8282613225565b919050565b600067ffffffffffffffff82111561328c5761328b6131f6565b5b61329582612ecb565b9050602081019050919050565b82818337600083830152505050565b60006132c46132bf84613271565b613256565b9050828152602081018484840111156132e0576132df6131f1565b5b6132eb8482856132a2565b509392505050565b600082601f830112613308576133076131ec565b5b81356133188482602086016132b1565b91505092915050565b60006020828403121561333757613336612dc0565b5b600082013567ffffffffffffffff81111561335557613354612dc5565b5b613361848285016132f3565b91505092915050565b6000602082840312156133805761337f612dc0565b5b600061338e8482850161300d565b91505092915050565b6133a081612e4f565b81146133ab57600080fd5b50565b6000813590506133bd81613397565b92915050565b600080604083850312156133da576133d9612dc0565b5b60006133e88582860161300d565b92505060206133f9858286016133ae565b9150509250929050565b600067ffffffffffffffff82111561341e5761341d6131f6565b5b61342782612ecb565b9050602081019050919050565b600061344761344284613403565b613256565b905082815260208101848484011115613463576134626131f1565b5b61346e8482856132a2565b509392505050565b600082601f83011261348b5761348a6131ec565b5b813561349b848260208601613434565b91505092915050565b600080600080608085870312156134be576134bd612dc0565b5b60006134cc8782880161300d565b94505060206134dd8782880161300d565b93505060406134ee87828801612f58565b925050606085013567ffffffffffffffff81111561350f5761350e612dc5565b5b61351b87828801613476565b91505092959194509250565b6000806040838503121561353e5761353d612dc0565b5b600061354c8582860161300d565b925050602061355d8582860161300d565b9150509250929050565b6000806040838503121561357e5761357d612dc0565b5b600061358c85828601612f58565b925050602083013567ffffffffffffffff8111156135ad576135ac612dc5565b5b6135b9858286016132f3565b9150509250929050565b7f4e487b7100000000000000000000000000000000000000000000000000000000600052602260045260246000fd5b6000600282049050600182168061360a57607f821691505b60208210810361361d5761361c6135c3565b5b50919050565b7f4552433732313a20617070726f76616c20746f2063757272656e74206f776e6560008201527f7200000000000000000000000000000000000000000000000000000000000000602082015250565b600061367f602183612e90565b915061368a82613623565b604082019050919050565b600060208201905081810360008301526136ae81613672565b9050919050565b7f4552433732313a20617070726f76652063616c6c6572206973206e6f7420746f60008201527f6b656e206f776e6572206f7220617070726f76656420666f7220616c6c000000602082015250565b6000613711603d83612e90565b915061371c826136b5565b604082019050919050565b6000602082019050818103600083015261374081613704565b9050919050565b7f4552433732313a2063616c6c6572206973206e6f7420746f6b656e206f776e6560008201527f72206f7220617070726f76656400000000000000000000000000000000000000602082015250565b60006137a3602d83612e90565b91506137ae82613747565b604082019050919050565b600060208201905081810360008301526137d281613796565b9050919050565b7f455243373231456e756d657261626c653a206f776e657220696e646578206f7560008201527f74206f6620626f756e6473000000000000000000000000000000000000000000602082015250565b6000613835602b83612e90565b9150613840826137d9565b604082019050919050565b6000602082019050818103600083015261386481613828565b9050919050565b7f416363657373436f6e74726f6c3a2063616e206f6e6c792072656e6f756e636560008201527f20726f6c657320666f722073656c660000000000000000000000000000000000602082015250565b60006138c7602f83612e90565b91506138d28261386b565b604082019050919050565b600060208201905081810360008301526138f6816138ba565b9050919050565b600081905092915050565b50565b60006139186000836138fd565b915061392382613908565b600082019050919050565b60006139398261390b565b9150819050919050565b60008190508160005260206000209050919050565b60008154613965816135f2565b61396f81866138fd565b9450600182166000811461398a576001811461399f576139d2565b60ff19831686528115158202860193506139d2565b6139a885613943565b60005b838110156139ca578154818901526001820191506020810190506139ab565b838801955050505b50505092915050565b60006139e78284613958565b915081905092915050565b7f4b696e6420646f6573206e6f7420657869737473000000000000000000000000600082015250565b6000613a28601483612e90565b9150613a33826139f2565b602082019050919050565b60006020820190508181036000830152613a5781613a1b565b9050919050565b7f455243373231456e756d657261626c653a20676c6f62616c20696e646578206f60008201527f7574206f6620626f756e64730000000000000000000000000000000000000000602082015250565b6000613aba602c83612e90565b9150613ac582613a5e565b604082019050919050565b60006020820190508181036000830152613ae981613aad565b9050919050565b7f4e487b7100000000000000000000000000000000000000000000000000000000600052603260045260246000fd5b7f6e6565642044454641554c545f41444d494e5f524f4c45000000000000000000600082015250565b6000613b55601783612e90565b9150613b6082613b1f565b602082019050919050565b60006020820190508181036000830152613b8481613b48565b9050919050565b60006020601f8301049050919050565b600082821b905092915050565b600060088302613bd87fffffffffffffffffffffffffffffffffffffffffffffffffffffffffffffffff82613b9b565b613be28683613b9b565b95508019841693508086168417925050509392505050565b6000819050919050565b6000613c1f613c1a613c1584612f37565b613bfa565b612f37565b9050919050565b6000819050919050565b613c3983613c04565b613c4d613c4582613c26565b848454613ba8565b825550505050565b600090565b613c62613c55565b613c6d818484613c30565b505050565b5b81811015613c9157613c86600082613c5a565b600181019050613c73565b5050565b601f821115613cd657613ca781613943565b613cb084613b8b565b81016020851015613cbf578190505b613cd3613ccb85613b8b565b830182613c72565b50505b505050565b600082821c905092915050565b6000613cf960001984600802613cdb565b1980831691505092915050565b6000613d128383613ce8565b9150826002028217905092915050565b613d2b82612e85565b67ffffffffffffffff811115613d4457613d436131f6565b5b613d4e82546135f2565b613d59828285613c95565b600060209050601f831160018114613d8c5760008415613d7a578287015190505b613d848582613d06565b865550613dec565b601f198416613d9a86613943565b60005b82811015613dc257848901518255600182019150602085019450602081019050613d9d565b86831015613ddf5784890151613ddb601f891682613ce8565b8355505b6001600288020188555050505b505050505050565b7f4552433732313a20696e76616c696420746f6b656e2049440000000000000000600082015250565b6000613e2a601883612e90565b9150613e3582613df4565b602082019050919050565b60006020820190508181036000830152613e5981613e1d565b9050919050565b7f4552433732313a2061646472657373207a65726f206973206e6f74206120766160008201527f6c6964206f776e65720000000000000000000000000000000000000000000000602082015250565b6000613ebc602983612e90565b9150613ec782613e60565b604082019050919050565b60006020820190508181036000830152613eeb81613eaf565b9050919050565b6000613efd82612e85565b613f0781856138fd565b9350613f17818560208601612ea1565b80840191505092915050565b7f2f00000000000000000000000000000000000000000000000000000000000000600082015250565b6000613f596001836138fd565b9150613f6482613f23565b600182019050919050565b7f2e6a736f6e000000000000000000000000000000000000000000000000000000600082015250565b6000613fa56005836138fd565b9150613fb082613f6f565b600582019050919050565b6000613fc78285613ef2565b9150613fd282613f4c565b9150613fde8284613ef2565b9150613fe982613f98565b91508190509392505050565b7f6e656564204d494e5445525f524f4c4500000000000000000000000000000000600082015250565b600061402b601083612e90565b915061403682613ff5565b602082019050919050565b6000602082019050818103600083015261405a8161401e565b9050919050565b7f4e487b7100000000000000000000000000000000000000000000000000000000600052601160045260246000fd5b600061409b82612f37565b91507fffffffffffffffffffffffffffffffffffffffffffffffffffffffffffffffff82036140cd576140cc614061565b5b600182019050919050565b7f4b696e6420616c72656164792065786973747300000000000000000000000000600082015250565b600061410e601383612e90565b9150614119826140d8565b602082019050919050565b6000602082019050818103600083015261413d81614101565b9050919050565b7f4552433732313a207472616e736665722066726f6d20696e636f72726563742060008201527f6f776e6572000000000000000000000000000000000000000000000000000000602082015250565b60006141a0602583612e90565b91506141ab82614144565b604082019050919050565b600060208201905081810360008301526141cf81614193565b9050919050565b7f4552433732313a207472616e7366657220746f20746865207a65726f2061646460008201527f7265737300000000000000000000000000000000000000000000000000000000602082015250565b6000614232602483612e90565b915061423d826141d6565b604082019050919050565b6000602082019050818103600083015261426181614225565b9050919050565b7f4552433732313a20617070726f766520746f2063616c6c657200000000000000600082015250565b600061429e601983612e90565b91506142a982614268565b602082019050919050565b600060208201905081810360008301526142cd81614291565b9050919050565b7f4552433732313a207472616e7366657220746f206e6f6e20455243373231526560008201527f63656976657220696d706c656d656e7465720000000000000000000000000000602082015250565b6000614330603283612e90565b915061433b826142d4565b604082019050919050565b6000602082019050818103600083015261435f81614323565b9050919050565b7f4e487b7100000000000000000000000000000000000000000000000000000000600052601260045260246000fd5b7f455243373231456e756d657261626c653a20636f6e736563757469766520747260008201527f616e7366657273206e6f7420737570706f727465640000000000000000000000602082015250565b60006143f1603583612e90565b91506143fc82614395565b604082019050919050565b60006020820190508181036000830152614420816143e4565b9050919050565b7f416363657373436f6e74726f6c3a206163636f756e7420000000000000000000600082015250565b600061445d6017836138fd565b915061446882614427565b601782019050919050565b7f206973206d697373696e6720726f6c6520000000000000000000000000000000600082015250565b60006144a96011836138fd565b91506144b482614473565b601182019050919050565b60006144ca82614450565b91506144d68285613ef2565b91506144e18261449c565b91506144ed8284613ef2565b91508190509392505050565b600081519050919050565b600082825260208201905092915050565b6000614520826144f9565b61452a8185614504565b935061453a818560208601612ea1565b61454381612ecb565b840191505092915050565b60006080820190506145636000830187612fcc565b6145706020830186612fcc565b61457d6040830185613062565b818103606083015261458f8184614515565b905095945050505050565b6000815190506145a981612df6565b92915050565b6000602082840312156145c5576145c4612dc0565b5b60006145d38482850161459a565b91505092915050565b60006145e782612f37565b91506145f283612f37565b925082820390508181111561460a57614609614061565b5b92915050565b7f4e487b7100000000000000000000000000000000000000000000000000000000600052603160045260246000fd5b600061464a82612f37565b915061465583612f37565b925082820261466381612f37565b9150828204841483151761467a57614679614061565b5b5092915050565b600061468c82612f37565b915061469783612f37565b92508282019050808211156146af576146ae614061565b5b92915050565b60006146c082612f37565b9150600082036146d3576146d2614061565b5b600182039050919050565b7f537472696e67733a20686578206c656e67746820696e73756666696369656e74600082015250565b6000614714602083612e90565b915061471f826146de565b602082019050919050565b6000602082019050818103600083015261474381614707565b9050919050565b7f4552433732313a206d696e7420746f20746865207a65726f2061646472657373600082015250565b6000614780602083612e90565b915061478b8261474a565b602082019050919050565b600060208201905081810360008301526147af81614773565b9050919050565b7f4552433732313a20746f6b656e20616c7265616479206d696e74656400000000600082015250565b60006147ec601c83612e90565b91506147f7826147b6565b602082019050919050565b6000602082019050818103600083015261481b816147df565b905091905056fea2646970667358221220f68becfefe438debadb05a81fec2d4d7325ba59a26b03cfa509864fc0d66091064736f6c63430008120033",
  "devdoc": {
    "events": {
      "Approval(address,address,uint256)": {
        "details": "Emitted when `owner` enables `approved` to manage the `tokenId` token."
      },
      "ApprovalForAll(address,address,bool)": {
        "details": "Emitted when `owner` enables or disables (`approved`) `operator` to manage all of its assets."
      },
      "RoleAdminChanged(bytes32,bytes32,bytes32)": {
        "details": "Emitted when `newAdminRole` is set as ``role``'s admin role, replacing `previousAdminRole` `DEFAULT_ADMIN_ROLE` is the starting admin for all roles, despite {RoleAdminChanged} not being emitted signaling this. _Available since v3.1._"
      },
      "RoleGranted(bytes32,address,address)": {
        "details": "Emitted when `account` is granted `role`. `sender` is the account that originated the contract call, an admin role bearer except when using {AccessControl-_setupRole}."
      },
      "RoleRevoked(bytes32,address,address)": {
        "details": "Emitted when `account` is revoked `role`. `sender` is the account that originated the contract call:   - if using `revokeRole`, it is the admin role bearer   - if using `renounceRole`, it is the role bearer (i.e. `account`)"
      },
      "Transfer(address,address,uint256)": {
        "details": "Emitted when `tokenId` token is transferred from `from` to `to`."
      }
    },
    "kind": "dev",
    "methods": {
      "approve(address,uint256)": {
        "details": "See {IERC721-approve}."
      },
      "balanceOf(address)": {
        "details": "See {IERC721-balanceOf}."
      },
      "getApproved(uint256)": {
        "details": "See {IERC721-getApproved}."
      },
      "getRoleAdmin(bytes32)": {
        "details": "Returns the admin role that controls `role`. See {grantRole} and {revokeRole}. To change a role's admin, use {_setRoleAdmin}."
      },
      "grantRole(bytes32,address)": {
        "details": "Grants `role` to `account`. If `account` had not been already granted `role`, emits a {RoleGranted} event. Requirements: - the caller must have ``role``'s admin role. May emit a {RoleGranted} event."
      },
      "hasRole(bytes32,address)": {
        "details": "Returns `true` if `account` has been granted `role`."
      },
      "isApprovedForAll(address,address)": {
        "details": "See {IERC721-isApprovedForAll}."
      },
      "name()": {
        "details": "See {IERC721Metadata-name}."
      },
      "ownerOf(uint256)": {
        "details": "See {IERC721-ownerOf}."
      },
      "renounceRole(bytes32,address)": {
        "details": "Revokes `role` from the calling account. Roles are often managed via {grantRole} and {revokeRole}: this function's purpose is to provide a mechanism for accounts to lose their privileges if they are compromised (such as when a trusted device is misplaced). If the calling account had been revoked `role`, emits a {RoleRevoked} event. Requirements: - the caller must be `account`. May emit a {RoleRevoked} event."
      },
      "revokeRole(bytes32,address)": {
        "details": "Revokes `role` from `account`. If `account` had been granted `role`, emits a {RoleRevoked} event. Requirements: - the caller must have ``role``'s admin role. May emit a {RoleRevoked} event."
      },
      "safeTransferFrom(address,address,uint256)": {
        "details": "See {IERC721-safeTransferFrom}."
      },
      "safeTransferFrom(address,address,uint256,bytes)": {
        "details": "See {IERC721-safeTransferFrom}."
      },
      "setApprovalForAll(address,bool)": {
        "details": "See {IERC721-setApprovalForAll}."
      },
      "symbol()": {
        "details": "See {IERC721Metadata-symbol}."
      },
      "tokenByIndex(uint256)": {
        "details": "See {IERC721Enumerable-tokenByIndex}."
      },
      "tokenOfOwnerByIndex(address,uint256)": {
        "details": "See {IERC721Enumerable-tokenOfOwnerByIndex}."
      },
      "tokenURI(uint256)": {
        "details": "See {IERC721Metadata-tokenURI}."
      },
      "totalSupply()": {
        "details": "See {IERC721Enumerable-totalSupply}."
      },
      "transferFrom(address,address,uint256)": {
        "details": "See {IERC721-transferFrom}."
      }
    },
    "version": 1
  },
  "userdoc": {
    "kind": "user",
    "methods": {},
    "version": 1
  },
  "storageLayout": {
    "storage": [
      {
        "astId": 1104,
        "contract": "contracts/EtherLuxeCollection.sol:EtherLuxeCollectionWeapons",
        "label": "_name",
        "offset": 0,
        "slot": "0",
        "type": "t_string_storage"
      },
      {
        "astId": 1106,
        "contract": "contracts/EtherLuxeCollection.sol:EtherLuxeCollectionWeapons",
        "label": "_symbol",
        "offset": 0,
        "slot": "1",
        "type": "t_string_storage"
      },
      {
        "astId": 1110,
        "contract": "contracts/EtherLuxeCollection.sol:EtherLuxeCollectionWeapons",
        "label": "_owners",
        "offset": 0,
        "slot": "2",
        "type": "t_mapping(t_uint256,t_address)"
      },
      {
        "astId": 1114,
        "contract": "contracts/EtherLuxeCollection.sol:EtherLuxeCollectionWeapons",
        "label": "_balances",
        "offset": 0,
        "slot": "3",
        "type": "t_mapping(t_address,t_uint256)"
      },
      {
        "astId": 1118,
        "contract": "contracts/EtherLuxeCollection.sol:EtherLuxeCollectionWeapons",
        "label": "_tokenApprovals",
        "offset": 0,
        "slot": "4",
        "type": "t_mapping(t_uint256,t_address)"
      },
      {
        "astId": 1124,
        "contract": "contracts/EtherLuxeCollection.sol:EtherLuxeCollectionWeapons",
        "label": "_operatorApprovals",
        "offset": 0,
        "slot": "5",
        "type": "t_mapping(t_address,t_mapping(t_address,t_bool))"
      },
      {
        "astId": 2154,
        "contract": "contracts/EtherLuxeCollection.sol:EtherLuxeCollectionWeapons",
        "label": "_ownedTokens",
        "offset": 0,
        "slot": "6",
        "type": "t_mapping(t_address,t_mapping(t_uint256,t_uint256))"
      },
      {
        "astId": 2158,
        "contract": "contracts/EtherLuxeCollection.sol:EtherLuxeCollectionWeapons",
        "label": "_ownedTokensIndex",
        "offset": 0,
        "slot": "7",
        "type": "t_mapping(t_uint256,t_uint256)"
      },
      {
        "astId": 2161,
        "contract": "contracts/EtherLuxeCollection.sol:EtherLuxeCollectionWeapons",
        "label": "_allTokens",
        "offset": 0,
        "slot": "8",
        "type": "t_array(t_uint256)dyn_storage"
      },
      {
        "astId": 2165,
        "contract": "contracts/EtherLuxeCollection.sol:EtherLuxeCollectionWeapons",
        "label": "_allTokensIndex",
        "offset": 0,
        "slot": "9",
        "type": "t_mapping(t_uint256,t_uint256)"
      },
      {
        "astId": 24,
        "contract": "contracts/EtherLuxeCollection.sol:EtherLuxeCollectionWeapons",
        "label": "_roles",
        "offset": 0,
        "slot": "10",
        "type": "t_mapping(t_bytes32,t_struct(RoleData)19_storage)"
      },
      {
        "astId": 3998,
        "contract": "contracts/EtherLuxeCollection.sol:EtherLuxeCollectionWeapons",
        "label": "kindSupply",
        "offset": 0,
        "slot": "11",
        "type": "t_mapping(t_uint256,t_uint256)"
      },
      {
        "astId": 4002,
        "contract": "contracts/EtherLuxeCollection.sol:EtherLuxeCollectionWeapons",
        "label": "kindNames",
        "offset": 0,
        "slot": "12",
        "type": "t_mapping(t_uint256,t_string_storage)"
      },
      {
        "astId": 4014,
        "contract": "contracts/EtherLuxeCollection.sol:EtherLuxeCollectionWeapons",
        "label": "_baseUri",
        "offset": 0,
        "slot": "13",
        "type": "t_string_storage"
      }
    ],
    "types": {
      "t_address": {
        "encoding": "inplace",
        "label": "address",
        "numberOfBytes": "20"
      },
      "t_array(t_uint256)dyn_storage": {
        "base": "t_uint256",
        "encoding": "dynamic_array",
        "label": "uint256[]",
        "numberOfBytes": "32"
      },
      "t_bool": {
        "encoding": "inplace",
        "label": "bool",
        "numberOfBytes": "1"
      },
      "t_bytes32": {
        "encoding": "inplace",
        "label": "bytes32",
        "numberOfBytes": "32"
      },
      "t_mapping(t_address,t_bool)": {
        "encoding": "mapping",
        "key": "t_address",
        "label": "mapping(address => bool)",
        "numberOfBytes": "32",
        "value": "t_bool"
      },
      "t_mapping(t_address,t_mapping(t_address,t_bool))": {
        "encoding": "mapping",
        "key": "t_address",
        "label": "mapping(address => mapping(address => bool))",
        "numberOfBytes": "32",
        "value": "t_mapping(t_address,t_bool)"
      },
      "t_mapping(t_address,t_mapping(t_uint256,t_uint256))": {
        "encoding": "mapping",
        "key": "t_address",
        "label": "mapping(address => mapping(uint256 => uint256))",
        "numberOfBytes": "32",
        "value": "t_mapping(t_uint256,t_uint256)"
      },
      "t_mapping(t_address,t_uint256)": {
        "encoding": "mapping",
        "key": "t_address",
        "label": "mapping(address => uint256)",
        "numberOfBytes": "32",
        "value": "t_uint256"
      },
      "t_mapping(t_bytes32,t_struct(RoleData)19_storage)": {
        "encoding": "mapping",
        "key": "t_bytes32",
        "label": "mapping(bytes32 => struct AccessControl.RoleData)",
        "numberOfBytes": "32",
        "value": "t_struct(RoleData)19_storage"
      },
      "t_mapping(t_uint256,t_address)": {
        "encoding": "mapping",
        "key": "t_uint256",
        "label": "mapping(uint256 => address)",
        "numberOfBytes": "32",
        "value": "t_address"
      },
      "t_mapping(t_uint256,t_string_storage)": {
        "encoding": "mapping",
        "key": "t_uint256",
        "label": "mapping(uint256 => string)",
        "numberOfBytes": "32",
        "value": "t_string_storage"
      },
      "t_mapping(t_uint256,t_uint256)": {
        "encoding": "mapping",
        "key": "t_uint256",
        "label": "mapping(uint256 => uint256)",
        "numberOfBytes": "32",
        "value": "t_uint256"
      },
      "t_string_storage": {
        "encoding": "bytes",
        "label": "string",
        "numberOfBytes": "32"
      },
      "t_struct(RoleData)19_storage": {
        "encoding": "inplace",
        "label": "struct AccessControl.RoleData",
        "members": [
          {
            "astId": 16,
            "contract": "contracts/EtherLuxeCollection.sol:EtherLuxeCollectionWeapons",
            "label": "members",
            "offset": 0,
            "slot": "0",
            "type": "t_mapping(t_address,t_bool)"
          },
          {
            "astId": 18,
            "contract": "contracts/EtherLuxeCollection.sol:EtherLuxeCollectionWeapons",
            "label": "adminRole",
            "offset": 0,
            "slot": "1",
            "type": "t_bytes32"
          }
        ],
        "numberOfBytes": "64"
      },
      "t_uint256": {
        "encoding": "inplace",
        "label": "uint256",
        "numberOfBytes": "32"
      }
    }
  }
}