{
  "address": "0x403dCFfea80869007b44a8436d478AC3bF37922c",
  "abi": [
    {
      "inputs": [
        {
          "internalType": "contract IERC20",
          "name": "governanceTokenAddress",
          "type": "address"
        },
        {
          "internalType": "contract SaleContractOracle",
          "name": "oracleAddress",
          "type": "address"
        },
        {
          "internalType": "uint256",
          "name": "governanceTokensInvariantValue",
          "type": "uint256"
        },
        {
          "internalType": "address",
          "name": "nftAdministrator",
          "type": "address"
        },
        {
          "internalType": "address",
          "name": "priceModerator",
          "type": "address"
        },
        {
          "internalType": "address",
          "name": "purchaseAdministrator",
          "type": "address"
        },
        {
          "internalType": "address",
          "name": "invariantAdministrator",
          "type": "address"
        }
      ],
      "stateMutability": "nonpayable",
      "type": "constructor"
    },
    {
      "anonymous": false,
      "inputs": [
        {
          "indexed": false,
          "internalType": "bytes32",
          "name": "creationTxHash",
          "type": "bytes32"
        },
        {
          "indexed": false,
          "internalType": "address",
          "name": "buyer",
          "type": "address"
        },
        {
          "indexed": false,
          "internalType": "address",
          "name": "collection",
          "type": "address"
        },
        {
          "indexed": false,
          "internalType": "uint256",
          "name": "tokenId",
          "type": "uint256"
        },
        {
          "indexed": false,
          "internalType": "uint256",
          "name": "governanceTokenAmount",
          "type": "uint256"
        },
        {
          "indexed": false,
          "internalType": "uint256",
          "name": "providedNativeAmount",
          "type": "uint256"
        }
      ],
      "name": "PurchaseRequestCompleted",
      "type": "event"
    },
    {
      "anonymous": false,
      "inputs": [
        {
          "indexed": false,
          "internalType": "address",
          "name": "buyer",
          "type": "address"
        },
        {
          "indexed": false,
          "internalType": "address",
          "name": "collection",
          "type": "address"
        },
        {
          "indexed": false,
          "internalType": "uint256",
          "name": "tokenId",
          "type": "uint256"
        }
      ],
      "name": "PurchaseRequestCreated",
      "type": "event"
    },
    {
      "anonymous": false,
      "inputs": [
        {
          "indexed": true,
          "internalType": "bytes32",
          "name": "role",
          "type": "bytes32"
        },
        {
          "indexed": true,
          "internalType": "bytes32",
          "name": "previousAdminRole",
          "type": "bytes32"
        },
        {
          "indexed": true,
          "internalType": "bytes32",
          "name": "newAdminRole",
          "type": "bytes32"
        }
      ],
      "name": "RoleAdminChanged",
      "type": "event"
    },
    {
      "anonymous": false,
      "inputs": [
        {
          "indexed": true,
          "internalType": "bytes32",
          "name": "role",
          "type": "bytes32"
        },
        {
          "indexed": true,
          "internalType": "address",
          "name": "account",
          "type": "address"
        },
        {
          "indexed": true,
          "internalType": "address",
          "name": "sender",
          "type": "address"
        }
      ],
      "name": "RoleGranted",
      "type": "event"
    },
    {
      "anonymous": false,
      "inputs": [
        {
          "indexed": true,
          "internalType": "bytes32",
          "name": "role",
          "type": "bytes32"
        },
        {
          "indexed": true,
          "internalType": "address",
          "name": "account",
          "type": "address"
        },
        {
          "indexed": true,
          "internalType": "address",
          "name": "sender",
          "type": "address"
        }
      ],
      "name": "RoleRevoked",
      "type": "event"
    },
    {
      "inputs": [],
      "name": "DEFAULT_ADMIN_ROLE",
      "outputs": [
        {
          "internalType": "bytes32",
          "name": "",
          "type": "bytes32"
        }
      ],
      "stateMutability": "view",
      "type": "function"
    },
    {
      "inputs": [],
      "name": "INVARIANT_ADMINISTRATOR_ROLE",
      "outputs": [
        {
          "internalType": "bytes32",
          "name": "",
          "type": "bytes32"
        }
      ],
      "stateMutability": "view",
      "type": "function"
    },
    {
      "inputs": [],
      "name": "NFT_ADMINISTATOR_ROLE",
      "outputs": [
        {
          "internalType": "bytes32",
          "name": "",
          "type": "bytes32"
        }
      ],
      "stateMutability": "view",
      "type": "function"
    },
    {
      "inputs": [],
      "name": "PRICE_MODERATOR_ROLE",
      "outputs": [
        {
          "internalType": "bytes32",
          "name": "",
          "type": "bytes32"
        }
      ],
      "stateMutability": "view",
      "type": "function"
    },
    {
      "inputs": [],
      "name": "PURCHASE_ADMINISTRATOR_ROLE",
      "outputs": [
        {
          "internalType": "bytes32",
          "name": "",
          "type": "bytes32"
        }
      ],
      "stateMutability": "view",
      "type": "function"
    },
    {
      "inputs": [
        {
          "internalType": "contract Collection",
          "name": "collection",
          "type": "address"
        },
        {
          "internalType": "uint256",
          "name": "initialPrice",
          "type": "uint256"
        }
      ],
      "name": "addNFT",
      "outputs": [],
      "stateMutability": "nonpayable",
      "type": "function"
    },
    {
      "inputs": [
        {
          "internalType": "contract Collection",
          "name": "",
          "type": "address"
        }
      ],
      "name": "collectionPrice",
      "outputs": [
        {
          "internalType": "uint256",
          "name": "",
          "type": "uint256"
        }
      ],
      "stateMutability": "view",
      "type": "function"
    },
    {
      "inputs": [],
      "name": "getGovernanceTokensAmount",
      "outputs": [
        {
          "internalType": "uint256",
          "name": "",
          "type": "uint256"
        }
      ],
      "stateMutability": "view",
      "type": "function"
    },
    {
      "inputs": [
        {
          "internalType": "contract Collection",
          "name": "collection",
          "type": "address"
        }
      ],
      "name": "getPrice",
      "outputs": [
        {
          "internalType": "uint256",
          "name": "",
          "type": "uint256"
        }
      ],
      "stateMutability": "view",
      "type": "function"
    },
    {
      "inputs": [
        {
          "internalType": "bytes32",
          "name": "role",
          "type": "bytes32"
        }
      ],
      "name": "getRoleAdmin",
      "outputs": [
        {
          "internalType": "bytes32",
          "name": "",
          "type": "bytes32"
        }
      ],
      "stateMutability": "view",
      "type": "function"
    },
    {
      "inputs": [],
      "name": "governanceTokensInvariant",
      "outputs": [
        {
          "internalType": "uint256",
          "name": "",
          "type": "uint256"
        }
      ],
      "stateMutability": "view",
      "type": "function"
    },
    {
      "inputs": [
        {
          "internalType": "bytes32",
          "name": "role",
          "type": "bytes32"
        },
        {
          "internalType": "address",
          "name": "account",
          "type": "address"
        }
      ],
      "name": "grantRole",
      "outputs": [],
      "stateMutability": "nonpayable",
      "type": "function"
    },
    {
      "inputs": [
        {
          "internalType": "bytes32",
          "name": "role",
          "type": "bytes32"
        },
        {
          "internalType": "address",
          "name": "account",
          "type": "address"
        }
      ],
      "name": "hasRole",
      "outputs": [
        {
          "internalType": "bool",
          "name": "",
          "type": "bool"
        }
      ],
      "stateMutability": "view",
      "type": "function"
    },
    {
      "inputs": [
        {
          "internalType": "bytes32",
          "name": "creationTxHash",
          "type": "bytes32"
        }
      ],
      "name": "processNFTPurchase",
      "outputs": [],
      "stateMutability": "nonpayable",
      "type": "function"
    },
    {
      "inputs": [
        {
          "internalType": "bytes32",
          "name": "role",
          "type": "bytes32"
        },
        {
          "internalType": "address",
          "name": "account",
          "type": "address"
        }
      ],
      "name": "renounceRole",
      "outputs": [],
      "stateMutability": "nonpayable",
      "type": "function"
    },
    {
      "inputs": [
        {
          "internalType": "contract Collection",
          "name": "collection",
          "type": "address"
        }
      ],
      "name": "requestNFTPurchase",
      "outputs": [],
      "stateMutability": "payable",
      "type": "function"
    },
    {
      "inputs": [
        {
          "internalType": "bytes32",
          "name": "role",
          "type": "bytes32"
        },
        {
          "internalType": "address",
          "name": "account",
          "type": "address"
        }
      ],
      "name": "revokeRole",
      "outputs": [],
      "stateMutability": "nonpayable",
      "type": "function"
    },
    {
      "inputs": [
        {
          "internalType": "contract ERC20",
          "name": "token",
          "type": "address"
        }
      ],
      "name": "setGovernanceToken",
      "outputs": [],
      "stateMutability": "nonpayable",
      "type": "function"
    },
    {
      "inputs": [
        {
          "internalType": "uint256",
          "name": "value",
          "type": "uint256"
        }
      ],
      "name": "setGovernanceTokensInvariant",
      "outputs": [],
      "stateMutability": "nonpayable",
      "type": "function"
    },
    {
      "inputs": [
        {
          "internalType": "contract Collection",
          "name": "collection",
          "type": "address"
        },
        {
          "internalType": "uint256",
          "name": "price",
          "type": "uint256"
        }
      ],
      "name": "setPrice",
      "outputs": [],
      "stateMutability": "nonpayable",
      "type": "function"
    },
    {
      "inputs": [
        {
          "internalType": "bytes4",
          "name": "interfaceId",
          "type": "bytes4"
        }
      ],
      "name": "supportsInterface",
      "outputs": [
        {
          "internalType": "bool",
          "name": "",
          "type": "bool"
        }
      ],
      "stateMutability": "view",
      "type": "function"
    },
    {
      "inputs": [],
      "name": "withdraw",
      "outputs": [],
      "stateMutability": "nonpayable",
      "type": "function"
    }
  ],
  "transactionHash": "0x837fbd303a49ad93125b48a0e78ace5fd7277296dd6c809da3a6134aeca27f98",
  "args": [
    "0x41944CB95714E88BC5f6714d913cd00dEd1A577C",
    "0xBE381Ff5ab875Fa7742B6E87EB1CC7793b3026D2",
    "10000000000000000000000",
    "0xc7786504CE2f404894769643227236BE0FCFF3C2",
    "0xa85230CcCD6EB08f58F26E2573e6980348b72972",
    "0x923C8892015aF19a5E65c16e8Db7C86C8BCA8e71",
    "0xd73c7e2f3D0A6438a3eEF8A17f94a021444B7D66"
  ],
  "numDeployments": 1,
  "solcInputHash": "a8f3311666f682b3dfde45b2d59d2501",
  "bytecode": "0x60806040523480156200001157600080fd5b50604051620026693803806200266983398181016040528101906200003791906200044b565b86600360006101000a81548173ffffffffffffffffffffffffffffffffffffffff021916908373ffffffffffffffffffffffffffffffffffffffff1602179055508460028190555085600460006101000a81548173ffffffffffffffffffffffffffffffffffffffff021916908373ffffffffffffffffffffffffffffffffffffffff160217905550620000e46000801b620000d8620001b960201b60201c565b620001c160201b60201c565b620001167f5513584faeae0190ba7f1f9e64bae19a92e016f504def6e5594e1bf0bdabae4d85620001c160201b60201c565b620001487f5e30ab8de65f6fb9c97566c25cacd0ffe575c8c222816679b26742548a7af64c84620001c160201b60201c565b6200017a7fc807cfc6c1ebc980ceb8b962927716b939d8c142e57aaaa598b3610ad0d93b7b83620001c160201b60201c565b620001ac7f6c60b29123c5ca7a2033a1b67ee1fa508e3b45ed75e4c3c58b487c8f9a320e1a82620001c160201b60201c565b50505050505050620004fe565b600033905090565b620001d38282620002b260201b60201c565b620002ae57600160008084815260200190815260200160002060000160008373ffffffffffffffffffffffffffffffffffffffff1673ffffffffffffffffffffffffffffffffffffffff16815260200190815260200160002060006101000a81548160ff02191690831515021790555062000253620001b960201b60201c565b73ffffffffffffffffffffffffffffffffffffffff168173ffffffffffffffffffffffffffffffffffffffff16837f2f8788117e7eff1d82e926ec794901d17c78024a50270940304540a733656f0d60405160405180910390a45b5050565b600080600084815260200190815260200160002060000160008373ffffffffffffffffffffffffffffffffffffffff1673ffffffffffffffffffffffffffffffffffffffff16815260200190815260200160002060009054906101000a900460ff16905092915050565b600080fd5b600073ffffffffffffffffffffffffffffffffffffffff82169050919050565b60006200034e8262000321565b9050919050565b6000620003628262000341565b9050919050565b620003748162000355565b81146200038057600080fd5b50565b600081519050620003948162000369565b92915050565b6000620003a78262000341565b9050919050565b620003b9816200039a565b8114620003c557600080fd5b50565b600081519050620003d981620003ae565b92915050565b6000819050919050565b620003f481620003df565b81146200040057600080fd5b50565b6000815190506200041481620003e9565b92915050565b620004258162000341565b81146200043157600080fd5b50565b60008151905062000445816200041a565b92915050565b600080600080600080600060e0888a0312156200046d576200046c6200031c565b5b60006200047d8a828b0162000383565b9750506020620004908a828b01620003c8565b9650506040620004a38a828b0162000403565b9550506060620004b68a828b0162000434565b9450506080620004c98a828b0162000434565b93505060a0620004dc8a828b0162000434565b92505060c0620004ef8a828b0162000434565b91505092959891949750929550565b61215b806200050e6000396000f3fe6080604052600436106101345760003560e01c806391d14854116100ab578063b28e01ac1161006f578063b28e01ac14610411578063d547741f1461042d578063db77a6c814610456578063e61b6a1614610481578063f0113531146104be578063f8570170146104e957610134565b806391d1485414610328578063947bfaaf1461036557806395e745cf14610390578063a1b10c89146103bb578063a217fddf146103e657610134565b80632dafcc2b116100fd5780632dafcc2b146102305780632f2ff15d1461025957806336568abe146102825780633ccfd60b146102ab57806341976e09146102c25780634ea2813c146102ff57610134565b8062e4768b1461013957806301ffc9a7146101625780630a26bae61461019f57806314884e59146101ca578063248a9ca3146101f3575b600080fd5b34801561014557600080fd5b50610160600480360381019061015b9190611646565b610512565b005b34801561016e57600080fd5b50610189600480360381019061018491906116de565b610585565b6040516101969190611726565b60405180910390f35b3480156101ab57600080fd5b506101b46105ff565b6040516101c1919061175a565b60405180910390f35b3480156101d657600080fd5b506101f160048036038101906101ec91906117a1565b610623565b005b3480156101ff57600080fd5b5061021a600480360381019061021591906117a1565b610a4a565b604051610227919061175a565b60405180910390f35b34801561023c57600080fd5b50610257600480360381019061025291906117ce565b610a69565b005b34801561026557600080fd5b50610280600480360381019061027b9190611827565b610a9e565b005b34801561028e57600080fd5b506102a960048036038101906102a49190611827565b610abf565b005b3480156102b757600080fd5b506102c0610b42565b005b3480156102ce57600080fd5b506102e960048036038101906102e49190611867565b610ba0565b6040516102f691906118a3565b60405180910390f35b34801561030b57600080fd5b5061032660048036038101906103219190611646565b610c31565b005b34801561033457600080fd5b5061034f600480360381019061034a9190611827565b610d26565b60405161035c9190611726565b60405180910390f35b34801561037157600080fd5b5061037a610d90565b604051610387919061175a565b60405180910390f35b34801561039c57600080fd5b506103a5610db4565b6040516103b2919061175a565b60405180910390f35b3480156103c757600080fd5b506103d0610dd8565b6040516103dd91906118a3565b60405180910390f35b3480156103f257600080fd5b506103fb610dde565b604051610408919061175a565b60405180910390f35b61042b60048036038101906104269190611867565b610de5565b005b34801561043957600080fd5b50610454600480360381019061044f9190611827565b610f00565b005b34801561046257600080fd5b5061046b610f21565b604051610478919061175a565b60405180910390f35b34801561048d57600080fd5b506104a860048036038101906104a39190611867565b610f45565b6040516104b591906118a3565b60405180910390f35b3480156104ca57600080fd5b506104d3610f5d565b6040516104e091906118a3565b60405180910390f35b3480156104f557600080fd5b50610510600480360381019061050b91906118fc565b611014565b005b7f5e30ab8de65f6fb9c97566c25cacd0ffe575c8c222816679b26742548a7af64c61053c81611066565b81600160008573ffffffffffffffffffffffffffffffffffffffff1673ffffffffffffffffffffffffffffffffffffffff16815260200190815260200160002081905550505050565b60007f7965db0b000000000000000000000000000000000000000000000000000000007bffffffffffffffffffffffffffffffffffffffffffffffffffffffff1916827bffffffffffffffffffffffffffffffffffffffffffffffffffffffff191614806105f857506105f78261107a565b5b9050919050565b7fc807cfc6c1ebc980ceb8b962927716b939d8c142e57aaaa598b3610ad0d93b7b81565b7fc807cfc6c1ebc980ceb8b962927716b939d8c142e57aaaa598b3610ad0d93b7b61064d81611066565b600080600080600460009054906101000a900473ffffffffffffffffffffffffffffffffffffffff1673ffffffffffffffffffffffffffffffffffffffff1663f8e011f0876040518263ffffffff1660e01b81526004016106ae919061175a565b608060405180830381865afa1580156106cb573d6000803e3d6000fd5b505050506040513d601f19601f820116820180604052508101906106ef9190611953565b9350935093509350600073ffffffffffffffffffffffffffffffffffffffff168473ffffffffffffffffffffffffffffffffffffffff1603610766576040517f08c379a000000000000000000000000000000000000000000000000000000000815260040161075d90611a17565b60405180910390fd5b600073ffffffffffffffffffffffffffffffffffffffff168373ffffffffffffffffffffffffffffffffffffffff16036107d5576040517f08c379a00000000000000000000000000000000000000000000000000000000081526004016107cc90611a83565b60405180910390fd5b600083905060006107e582610ba0565b9050808314610829576040517f08c379a000000000000000000000000000000000000000000000000000000000815260040161082090611aef565b60405180910390fd5b6000610833610f5d565b905080600360009054906101000a900473ffffffffffffffffffffffffffffffffffffffff1673ffffffffffffffffffffffffffffffffffffffff166370a08231306040518263ffffffff1660e01b81526004016108919190611b1e565b602060405180830381865afa1580156108ae573d6000803e3d6000fd5b505050506040513d601f19601f820116820180604052508101906108d29190611b39565b101580156108e1575060008114155b1561098c57600360009054906101000a900473ffffffffffffffffffffffffffffffffffffffff1673ffffffffffffffffffffffffffffffffffffffff1663a9059cbb88836040518363ffffffff1660e01b8152600401610943929190611b66565b6020604051808303816000875af1158015610962573d6000803e3d6000fd5b505050506040513d601f19601f820116820180604052508101906109869190611bbb565b50610991565b600090505b8273ffffffffffffffffffffffffffffffffffffffff166340c10f1988876040518363ffffffff1660e01b81526004016109cc929190611b66565b600060405180830381600087803b1580156109e657600080fd5b505af11580156109fa573d6000803e3d6000fd5b505050507f465d68b0a41c50c5079d2d0baa05c3bf8735e4a37a1df4e060f18f5576c6a067898888888589604051610a3796959493929190611be8565b60405180910390a1505050505050505050565b6000806000838152602001908152602001600020600101549050919050565b7f6c60b29123c5ca7a2033a1b67ee1fa508e3b45ed75e4c3c58b487c8f9a320e1a610a9381611066565b816002819055505050565b610aa782610a4a565b610ab081611066565b610aba83836110e4565b505050565b610ac76111c4565b73ffffffffffffffffffffffffffffffffffffffff168173ffffffffffffffffffffffffffffffffffffffff1614610b34576040517f08c379a0000000000000000000000000000000000000000000000000000000008152600401610b2b90611cbb565b60405180910390fd5b610b3e82826111cc565b5050565b6000801b610b4f81611066565b610b576111c4565b73ffffffffffffffffffffffffffffffffffffffff166108fc479081150290604051600060405180830381858888f19350505050158015610b9c573d6000803e3d6000fd5b5050565b600080600160008473ffffffffffffffffffffffffffffffffffffffff1673ffffffffffffffffffffffffffffffffffffffff16815260200190815260200160002054905060008111610c28576040517f08c379a0000000000000000000000000000000000000000000000000000000008152600401610c1f90611a83565b60405180910390fd5b80915050919050565b7f5513584faeae0190ba7f1f9e64bae19a92e016f504def6e5594e1bf0bdabae4d610c5b81611066565b6000600160008573ffffffffffffffffffffffffffffffffffffffff1673ffffffffffffffffffffffffffffffffffffffff1681526020019081526020016000205414610cdd576040517f08c379a0000000000000000000000000000000000000000000000000000000008152600401610cd490611d27565b60405180910390fd5b81600160008573ffffffffffffffffffffffffffffffffffffffff1673ffffffffffffffffffffffffffffffffffffffff16815260200190815260200160002081905550505050565b600080600084815260200190815260200160002060000160008373ffffffffffffffffffffffffffffffffffffffff1673ffffffffffffffffffffffffffffffffffffffff16815260200190815260200160002060009054906101000a900460ff16905092915050565b7f5513584faeae0190ba7f1f9e64bae19a92e016f504def6e5594e1bf0bdabae4d81565b7f6c60b29123c5ca7a2033a1b67ee1fa508e3b45ed75e4c3c58b487c8f9a320e1a81565b60025481565b6000801b81565b6000610df082610ba0565b9050803414610e34576040517f08c379a0000000000000000000000000000000000000000000000000000000008152600401610e2b90611aef565b60405180910390fd5b600060018373ffffffffffffffffffffffffffffffffffffffff166318160ddd6040518163ffffffff1660e01b8152600401602060405180830381865afa158015610e83573d6000803e3d6000fd5b505050506040513d601f19601f82011682018060405250810190610ea79190611b39565b610eb19190611d76565b90506000610ebd6111c4565b90507fb00f5445853e88f14e64fbf2bba6bf14a8535094c4651c8f5b33c9025572f9d9818584604051610ef293929190611daa565b60405180910390a150505050565b610f0982610a4a565b610f1281611066565b610f1c83836111cc565b505050565b7f5e30ab8de65f6fb9c97566c25cacd0ffe575c8c222816679b26742548a7af64c81565b60016020528060005260406000206000915090505481565b600080600360009054906101000a900473ffffffffffffffffffffffffffffffffffffffff1673ffffffffffffffffffffffffffffffffffffffff166318160ddd6040518163ffffffff1660e01b8152600401602060405180830381865afa158015610fcd573d6000803e3d6000fd5b505050506040513d601f19601f82011682018060405250810190610ff19190611b39565b90506000810361100057600190505b8060025461100e9190611e10565b91505090565b6000801b61102181611066565b81600360006101000a81548173ffffffffffffffffffffffffffffffffffffffff021916908373ffffffffffffffffffffffffffffffffffffffff1602179055505050565b611077816110726111c4565b6112ad565b50565b60007f01ffc9a7000000000000000000000000000000000000000000000000000000007bffffffffffffffffffffffffffffffffffffffffffffffffffffffff1916827bffffffffffffffffffffffffffffffffffffffffffffffffffffffff1916149050919050565b6110ee8282610d26565b6111c057600160008084815260200190815260200160002060000160008373ffffffffffffffffffffffffffffffffffffffff1673ffffffffffffffffffffffffffffffffffffffff16815260200190815260200160002060006101000a81548160ff0219169083151502179055506111656111c4565b73ffffffffffffffffffffffffffffffffffffffff168173ffffffffffffffffffffffffffffffffffffffff16837f2f8788117e7eff1d82e926ec794901d17c78024a50270940304540a733656f0d60405160405180910390a45b5050565b600033905090565b6111d68282610d26565b156112a957600080600084815260200190815260200160002060000160008373ffffffffffffffffffffffffffffffffffffffff1673ffffffffffffffffffffffffffffffffffffffff16815260200190815260200160002060006101000a81548160ff02191690831515021790555061124e6111c4565b73ffffffffffffffffffffffffffffffffffffffff168173ffffffffffffffffffffffffffffffffffffffff16837ff6391f5c32d9c69d2a47ea670b442974b53935d1edc7fd64eb21e047a839171b60405160405180910390a45b5050565b6112b78282610d26565b61132e576112c481611332565b6112d28360001c602061135f565b6040516020016112e3929190611f4a565b6040516020818303038152906040526040517f08c379a00000000000000000000000000000000000000000000000000000000081526004016113259190611fce565b60405180910390fd5b5050565b60606113588273ffffffffffffffffffffffffffffffffffffffff16601460ff1661135f565b9050919050565b6060600060028360026113729190611ff0565b61137c9190611d76565b67ffffffffffffffff81111561139557611394612032565b5b6040519080825280601f01601f1916602001820160405280156113c75781602001600182028036833780820191505090505b5090507f3000000000000000000000000000000000000000000000000000000000000000816000815181106113ff576113fe612061565b5b60200101907effffffffffffffffffffffffffffffffffffffffffffffffffffffffffffff1916908160001a9053507f78000000000000000000000000000000000000000000000000000000000000008160018151811061146357611462612061565b5b60200101907effffffffffffffffffffffffffffffffffffffffffffffffffffffffffffff1916908160001a905350600060018460026114a39190611ff0565b6114ad9190611d76565b90505b600181111561154d577f3031323334353637383961626364656600000000000000000000000000000000600f8616601081106114ef576114ee612061565b5b1a60f81b82828151811061150657611505612061565b5b60200101907effffffffffffffffffffffffffffffffffffffffffffffffffffffffffffff1916908160001a905350600485901c94508061154690612090565b90506114b0565b5060008414611591576040517f08c379a000000000000000000000000000000000000000000000000000000000815260040161158890612105565b60405180910390fd5b8091505092915050565b600080fd5b600073ffffffffffffffffffffffffffffffffffffffff82169050919050565b60006115cb826115a0565b9050919050565b60006115dd826115c0565b9050919050565b6115ed816115d2565b81146115f857600080fd5b50565b60008135905061160a816115e4565b92915050565b6000819050919050565b61162381611610565b811461162e57600080fd5b50565b6000813590506116408161161a565b92915050565b6000806040838503121561165d5761165c61159b565b5b600061166b858286016115fb565b925050602061167c85828601611631565b9150509250929050565b60007fffffffff0000000000000000000000000000000000000000000000000000000082169050919050565b6116bb81611686565b81146116c657600080fd5b50565b6000813590506116d8816116b2565b92915050565b6000602082840312156116f4576116f361159b565b5b6000611702848285016116c9565b91505092915050565b60008115159050919050565b6117208161170b565b82525050565b600060208201905061173b6000830184611717565b92915050565b6000819050919050565b61175481611741565b82525050565b600060208201905061176f600083018461174b565b92915050565b61177e81611741565b811461178957600080fd5b50565b60008135905061179b81611775565b92915050565b6000602082840312156117b7576117b661159b565b5b60006117c58482850161178c565b91505092915050565b6000602082840312156117e4576117e361159b565b5b60006117f284828501611631565b91505092915050565b611804816115c0565b811461180f57600080fd5b50565b600081359050611821816117fb565b92915050565b6000806040838503121561183e5761183d61159b565b5b600061184c8582860161178c565b925050602061185d85828601611812565b9150509250929050565b60006020828403121561187d5761187c61159b565b5b600061188b848285016115fb565b91505092915050565b61189d81611610565b82525050565b60006020820190506118b86000830184611894565b92915050565b60006118c9826115c0565b9050919050565b6118d9816118be565b81146118e457600080fd5b50565b6000813590506118f6816118d0565b92915050565b6000602082840312156119125761191161159b565b5b6000611920848285016118e7565b91505092915050565b600081519050611938816117fb565b92915050565b60008151905061194d8161161a565b92915050565b6000806000806080858703121561196d5761196c61159b565b5b600061197b87828801611929565b945050602061198c87828801611929565b935050604061199d8782880161193e565b92505060606119ae8782880161193e565b91505092959194509250565b600082825260208201905092915050565b7f4241445f42555945520000000000000000000000000000000000000000000000600082015250565b6000611a016009836119ba565b9150611a0c826119cb565b602082019050919050565b60006020820190508181036000830152611a30816119f4565b9050919050565b7f4241445f434f4c4c454354494f4e000000000000000000000000000000000000600082015250565b6000611a6d600e836119ba565b9150611a7882611a37565b602082019050919050565b60006020820190508181036000830152611a9c81611a60565b9050919050565b7f4241445f4e41544956455f414d4f554e54000000000000000000000000000000600082015250565b6000611ad96011836119ba565b9150611ae482611aa3565b602082019050919050565b60006020820190508181036000830152611b0881611acc565b9050919050565b611b18816115c0565b82525050565b6000602082019050611b336000830184611b0f565b92915050565b600060208284031215611b4f57611b4e61159b565b5b6000611b5d8482850161193e565b91505092915050565b6000604082019050611b7b6000830185611b0f565b611b886020830184611894565b9392505050565b611b988161170b565b8114611ba357600080fd5b50565b600081519050611bb581611b8f565b92915050565b600060208284031215611bd157611bd061159b565b5b6000611bdf84828501611ba6565b91505092915050565b600060c082019050611bfd600083018961174b565b611c0a6020830188611b0f565b611c176040830187611b0f565b611c246060830186611894565b611c316080830185611894565b611c3e60a0830184611894565b979650505050505050565b7f416363657373436f6e74726f6c3a2063616e206f6e6c792072656e6f756e636560008201527f20726f6c657320666f722073656c660000000000000000000000000000000000602082015250565b6000611ca5602f836119ba565b9150611cb082611c49565b604082019050919050565b60006020820190508181036000830152611cd481611c98565b9050919050565b7f414c52454144595f414444454400000000000000000000000000000000000000600082015250565b6000611d11600d836119ba565b9150611d1c82611cdb565b602082019050919050565b60006020820190508181036000830152611d4081611d04565b9050919050565b7f4e487b7100000000000000000000000000000000000000000000000000000000600052601160045260246000fd5b6000611d8182611610565b9150611d8c83611610565b9250828201905080821115611da457611da3611d47565b5b92915050565b6000606082019050611dbf6000830186611b0f565b611dcc6020830185611b0f565b611dd96040830184611894565b949350505050565b7f4e487b7100000000000000000000000000000000000000000000000000000000600052601260045260246000fd5b6000611e1b82611610565b9150611e2683611610565b925082611e3657611e35611de1565b5b828204905092915050565b600081905092915050565b7f416363657373436f6e74726f6c3a206163636f756e7420000000000000000000600082015250565b6000611e82601783611e41565b9150611e8d82611e4c565b601782019050919050565b600081519050919050565b60005b83811015611ec1578082015181840152602081019050611ea6565b60008484015250505050565b6000611ed882611e98565b611ee28185611e41565b9350611ef2818560208601611ea3565b80840191505092915050565b7f206973206d697373696e6720726f6c6520000000000000000000000000000000600082015250565b6000611f34601183611e41565b9150611f3f82611efe565b601182019050919050565b6000611f5582611e75565b9150611f618285611ecd565b9150611f6c82611f27565b9150611f788284611ecd565b91508190509392505050565b6000601f19601f8301169050919050565b6000611fa082611e98565b611faa81856119ba565b9350611fba818560208601611ea3565b611fc381611f84565b840191505092915050565b60006020820190508181036000830152611fe88184611f95565b905092915050565b6000611ffb82611610565b915061200683611610565b925082820261201481611610565b9150828204841483151761202b5761202a611d47565b5b5092915050565b7f4e487b7100000000000000000000000000000000000000000000000000000000600052604160045260246000fd5b7f4e487b7100000000000000000000000000000000000000000000000000000000600052603260045260246000fd5b600061209b82611610565b9150600082036120ae576120ad611d47565b5b600182039050919050565b7f537472696e67733a20686578206c656e67746820696e73756666696369656e74600082015250565b60006120ef6020836119ba565b91506120fa826120b9565b602082019050919050565b6000602082019050818103600083015261211e816120e2565b905091905056fea26469706673582212205eed36bf26910e5b479e89d315ad1f1ef3a696dea3cb7d95b3127eb61ae1550264736f6c63430008120033",
  "devdoc": {
    "events": {
      "RoleAdminChanged(bytes32,bytes32,bytes32)": {
        "details": "Emitted when `newAdminRole` is set as ``role``'s admin role, replacing `previousAdminRole` `DEFAULT_ADMIN_ROLE` is the starting admin for all roles, despite {RoleAdminChanged} not being emitted signaling this. _Available since v3.1._"
      },
      "RoleGranted(bytes32,address,address)": {
        "details": "Emitted when `account` is granted `role`. `sender` is the account that originated the contract call, an admin role bearer except when using {AccessControl-_setupRole}."
      },
      "RoleRevoked(bytes32,address,address)": {
        "details": "Emitted when `account` is revoked `role`. `sender` is the account that originated the contract call:   - if using `revokeRole`, it is the admin role bearer   - if using `renounceRole`, it is the role bearer (i.e. `account`)"
      }
    },
    "kind": "dev",
    "methods": {
      "getRoleAdmin(bytes32)": {
        "details": "Returns the admin role that controls `role`. See {grantRole} and {revokeRole}. To change a role's admin, use {_setRoleAdmin}."
      },
      "grantRole(bytes32,address)": {
        "details": "Grants `role` to `account`. If `account` had not been already granted `role`, emits a {RoleGranted} event. Requirements: - the caller must have ``role``'s admin role. May emit a {RoleGranted} event."
      },
      "hasRole(bytes32,address)": {
        "details": "Returns `true` if `account` has been granted `role`."
      },
      "renounceRole(bytes32,address)": {
        "details": "Revokes `role` from the calling account. Roles are often managed via {grantRole} and {revokeRole}: this function's purpose is to provide a mechanism for accounts to lose their privileges if they are compromised (such as when a trusted device is misplaced). If the calling account had been revoked `role`, emits a {RoleRevoked} event. Requirements: - the caller must be `account`. May emit a {RoleRevoked} event."
      },
      "revokeRole(bytes32,address)": {
        "details": "Revokes `role` from `account`. If `account` had been granted `role`, emits a {RoleRevoked} event. Requirements: - the caller must have ``role``'s admin role. May emit a {RoleRevoked} event."
      },
      "supportsInterface(bytes4)": {
        "details": "See {IERC165-supportsInterface}."
      }
    },
    "version": 1
  },
  "userdoc": {
    "kind": "user",
    "methods": {},
    "version": 1
  },
  "storageLayout": {
    "storage": [
      {
        "astId": 24,
        "contract": "contracts/SaleContract.sol:SaleContract",
        "label": "_roles",
        "offset": 0,
        "slot": "0",
        "type": "t_mapping(t_bytes32,t_struct(RoleData)19_storage)"
      },
      {
        "astId": 4090,
        "contract": "contracts/SaleContract.sol:SaleContract",
        "label": "collectionPrice",
        "offset": 0,
        "slot": "1",
        "type": "t_mapping(t_contract(Collection)4057,t_uint256)"
      },
      {
        "astId": 4092,
        "contract": "contracts/SaleContract.sol:SaleContract",
        "label": "governanceTokensInvariant",
        "offset": 0,
        "slot": "2",
        "type": "t_uint256"
      },
      {
        "astId": 4095,
        "contract": "contracts/SaleContract.sol:SaleContract",
        "label": "governanceToken",
        "offset": 0,
        "slot": "3",
        "type": "t_contract(IERC20)1053"
      },
      {
        "astId": 4098,
        "contract": "contracts/SaleContract.sol:SaleContract",
        "label": "oracle",
        "offset": 0,
        "slot": "4",
        "type": "t_contract(SaleContractOracle)4631"
      }
    ],
    "types": {
      "t_address": {
        "encoding": "inplace",
        "label": "address",
        "numberOfBytes": "20"
      },
      "t_bool": {
        "encoding": "inplace",
        "label": "bool",
        "numberOfBytes": "1"
      },
      "t_bytes32": {
        "encoding": "inplace",
        "label": "bytes32",
        "numberOfBytes": "32"
      },
      "t_contract(Collection)4057": {
        "encoding": "inplace",
        "label": "contract Collection",
        "numberOfBytes": "20"
      },
      "t_contract(IERC20)1053": {
        "encoding": "inplace",
        "label": "contract IERC20",
        "numberOfBytes": "20"
      },
      "t_contract(SaleContractOracle)4631": {
        "encoding": "inplace",
        "label": "contract SaleContractOracle",
        "numberOfBytes": "20"
      },
      "t_mapping(t_address,t_bool)": {
        "encoding": "mapping",
        "key": "t_address",
        "label": "mapping(address => bool)",
        "numberOfBytes": "32",
        "value": "t_bool"
      },
      "t_mapping(t_bytes32,t_struct(RoleData)19_storage)": {
        "encoding": "mapping",
        "key": "t_bytes32",
        "label": "mapping(bytes32 => struct AccessControl.RoleData)",
        "numberOfBytes": "32",
        "value": "t_struct(RoleData)19_storage"
      },
      "t_mapping(t_contract(Collection)4057,t_uint256)": {
        "encoding": "mapping",
        "key": "t_contract(Collection)4057",
        "label": "mapping(contract Collection => uint256)",
        "numberOfBytes": "32",
        "value": "t_uint256"
      },
      "t_struct(RoleData)19_storage": {
        "encoding": "inplace",
        "label": "struct AccessControl.RoleData",
        "members": [
          {
            "astId": 16,
            "contract": "contracts/SaleContract.sol:SaleContract",
            "label": "members",
            "offset": 0,
            "slot": "0",
            "type": "t_mapping(t_address,t_bool)"
          },
          {
            "astId": 18,
            "contract": "contracts/SaleContract.sol:SaleContract",
            "label": "adminRole",
            "offset": 0,
            "slot": "1",
            "type": "t_bytes32"
          }
        ],
        "numberOfBytes": "64"
      },
      "t_uint256": {
        "encoding": "inplace",
        "label": "uint256",
        "numberOfBytes": "32"
      }
    }
  }
}