{
  "address": "0x2d2f27518645fcC3B3365B5bF3ac3E470b6a067D",
  "abi": [
    {
      "inputs": [
        {
          "internalType": "address",
          "name": "oracleWorker",
          "type": "address"
        }
      ],
      "stateMutability": "nonpayable",
      "type": "constructor"
    },
    {
      "anonymous": false,
      "inputs": [
        {
          "indexed": true,
          "internalType": "bytes32",
          "name": "role",
          "type": "bytes32"
        },
        {
          "indexed": true,
          "internalType": "bytes32",
          "name": "previousAdminRole",
          "type": "bytes32"
        },
        {
          "indexed": true,
          "internalType": "bytes32",
          "name": "newAdminRole",
          "type": "bytes32"
        }
      ],
      "name": "RoleAdminChanged",
      "type": "event"
    },
    {
      "anonymous": false,
      "inputs": [
        {
          "indexed": true,
          "internalType": "bytes32",
          "name": "role",
          "type": "bytes32"
        },
        {
          "indexed": true,
          "internalType": "address",
          "name": "account",
          "type": "address"
        },
        {
          "indexed": true,
          "internalType": "address",
          "name": "sender",
          "type": "address"
        }
      ],
      "name": "RoleGranted",
      "type": "event"
    },
    {
      "anonymous": false,
      "inputs": [
        {
          "indexed": true,
          "internalType": "bytes32",
          "name": "role",
          "type": "bytes32"
        },
        {
          "indexed": true,
          "internalType": "address",
          "name": "account",
          "type": "address"
        },
        {
          "indexed": true,
          "internalType": "address",
          "name": "sender",
          "type": "address"
        }
      ],
      "name": "RoleRevoked",
      "type": "event"
    },
    {
      "inputs": [],
      "name": "DEFAULT_ADMIN_ROLE",
      "outputs": [
        {
          "internalType": "bytes32",
          "name": "",
          "type": "bytes32"
        }
      ],
      "stateMutability": "view",
      "type": "function"
    },
    {
      "inputs": [],
      "name": "ORACLE_WORKER_ROLE",
      "outputs": [
        {
          "internalType": "bytes32",
          "name": "",
          "type": "bytes32"
        }
      ],
      "stateMutability": "view",
      "type": "function"
    },
    {
      "inputs": [
        {
          "internalType": "bytes32",
          "name": "txHash",
          "type": "bytes32"
        },
        {
          "internalType": "address",
          "name": "buyer",
          "type": "address"
        },
        {
          "internalType": "address",
          "name": "collection",
          "type": "address"
        },
        {
          "internalType": "uint256",
          "name": "kind",
          "type": "uint256"
        },
        {
          "internalType": "uint256",
          "name": "providedNativeAmount",
          "type": "uint256"
        }
      ],
      "name": "addPurchaseRequest",
      "outputs": [],
      "stateMutability": "nonpayable",
      "type": "function"
    },
    {
      "inputs": [
        {
          "internalType": "bytes32",
          "name": "txHash",
          "type": "bytes32"
        }
      ],
      "name": "getPurchaseRequest",
      "outputs": [
        {
          "internalType": "address",
          "name": "buyer",
          "type": "address"
        },
        {
          "internalType": "address",
          "name": "collection",
          "type": "address"
        },
        {
          "internalType": "uint256",
          "name": "kind",
          "type": "uint256"
        },
        {
          "internalType": "uint256",
          "name": "providedNativeAmount",
          "type": "uint256"
        }
      ],
      "stateMutability": "view",
      "type": "function"
    },
    {
      "inputs": [
        {
          "internalType": "bytes32",
          "name": "role",
          "type": "bytes32"
        }
      ],
      "name": "getRoleAdmin",
      "outputs": [
        {
          "internalType": "bytes32",
          "name": "",
          "type": "bytes32"
        }
      ],
      "stateMutability": "view",
      "type": "function"
    },
    {
      "inputs": [
        {
          "internalType": "bytes32",
          "name": "role",
          "type": "bytes32"
        },
        {
          "internalType": "address",
          "name": "account",
          "type": "address"
        }
      ],
      "name": "grantRole",
      "outputs": [],
      "stateMutability": "nonpayable",
      "type": "function"
    },
    {
      "inputs": [
        {
          "internalType": "bytes32",
          "name": "role",
          "type": "bytes32"
        },
        {
          "internalType": "address",
          "name": "account",
          "type": "address"
        }
      ],
      "name": "hasRole",
      "outputs": [
        {
          "internalType": "bool",
          "name": "",
          "type": "bool"
        }
      ],
      "stateMutability": "view",
      "type": "function"
    },
    {
      "inputs": [
        {
          "internalType": "bytes32",
          "name": "role",
          "type": "bytes32"
        },
        {
          "internalType": "address",
          "name": "account",
          "type": "address"
        }
      ],
      "name": "renounceRole",
      "outputs": [],
      "stateMutability": "nonpayable",
      "type": "function"
    },
    {
      "inputs": [
        {
          "internalType": "bytes32",
          "name": "role",
          "type": "bytes32"
        },
        {
          "internalType": "address",
          "name": "account",
          "type": "address"
        }
      ],
      "name": "revokeRole",
      "outputs": [],
      "stateMutability": "nonpayable",
      "type": "function"
    },
    {
      "inputs": [
        {
          "internalType": "bytes4",
          "name": "interfaceId",
          "type": "bytes4"
        }
      ],
      "name": "supportsInterface",
      "outputs": [
        {
          "internalType": "bool",
          "name": "",
          "type": "bool"
        }
      ],
      "stateMutability": "view",
      "type": "function"
    }
  ],
  "transactionHash": "0xa94c860e72e5257b7608e7afa3d96d6c2281d081e3de0c44d5736a8ba0754fc7",
  "args": [
    "0x8eE4585842b78aD80a768b73D434Da08e775c54D"
  ],
  "numDeployments": 1,
  "solcInputHash": "a598ed050da035dcd2cde8620f6b5a65",
  "bytecode": "0x60806040523480156200001157600080fd5b506040516200174c3803806200174c833981810160405281019062000037919062000261565b6200005b6000801b6200004f6200009460201b60201c565b6200009c60201b60201c565b6200008d7f4a62992ec8e38bbf65fbb7fccd51b60e36acd134fb3011b5e137dfbb37c2bd9b826200009c60201b60201c565b5062000293565b600033905090565b620000ae82826200018d60201b60201c565b6200018957600160008084815260200190815260200160002060000160008373ffffffffffffffffffffffffffffffffffffffff1673ffffffffffffffffffffffffffffffffffffffff16815260200190815260200160002060006101000a81548160ff0219169083151502179055506200012e6200009460201b60201c565b73ffffffffffffffffffffffffffffffffffffffff168173ffffffffffffffffffffffffffffffffffffffff16837f2f8788117e7eff1d82e926ec794901d17c78024a50270940304540a733656f0d60405160405180910390a45b5050565b600080600084815260200190815260200160002060000160008373ffffffffffffffffffffffffffffffffffffffff1673ffffffffffffffffffffffffffffffffffffffff16815260200190815260200160002060009054906101000a900460ff16905092915050565b600080fd5b600073ffffffffffffffffffffffffffffffffffffffff82169050919050565b60006200022982620001fc565b9050919050565b6200023b816200021c565b81146200024757600080fd5b50565b6000815190506200025b8162000230565b92915050565b6000602082840312156200027a5762000279620001f7565b5b60006200028a848285016200024a565b91505092915050565b6114a980620002a36000396000f3fe608060405234801561001057600080fd5b506004361061009e5760003560e01c806391d148541161006657806391d1485414610159578063a217fddf14610189578063b988a58e146101a7578063d547741f146101c3578063f8e011f0146101df5761009e565b806301ffc9a7146100a3578063248a9ca3146100d3578063276a02ef146101035780632f2ff15d1461012157806336568abe1461013d575b600080fd5b6100bd60048036038101906100b89190610d7b565b610212565b6040516100ca9190610dc3565b60405180910390f35b6100ed60048036038101906100e89190610e14565b61028c565b6040516100fa9190610e50565b60405180910390f35b61010b6102ab565b6040516101189190610e50565b60405180910390f35b61013b60048036038101906101369190610ec9565b6102cf565b005b61015760048036038101906101529190610ec9565b6102f0565b005b610173600480360381019061016e9190610ec9565b610373565b6040516101809190610dc3565b60405180910390f35b6101916103dd565b60405161019e9190610e50565b60405180910390f35b6101c160048036038101906101bc9190610f3f565b6103e4565b005b6101dd60048036038101906101d89190610ec9565b610717565b005b6101f960048036038101906101f49190610e14565b610738565b6040516102099493929190610fd8565b60405180910390f35b60007f7965db0b000000000000000000000000000000000000000000000000000000007bffffffffffffffffffffffffffffffffffffffffffffffffffffffff1916827bffffffffffffffffffffffffffffffffffffffffffffffffffffffff191614806102855750610284826107e9565b5b9050919050565b6000806000838152602001908152602001600020600101549050919050565b7f4a62992ec8e38bbf65fbb7fccd51b60e36acd134fb3011b5e137dfbb37c2bd9b81565b6102d88261028c565b6102e181610853565b6102eb8383610867565b505050565b6102f8610947565b73ffffffffffffffffffffffffffffffffffffffff168173ffffffffffffffffffffffffffffffffffffffff1614610365576040517f08c379a000000000000000000000000000000000000000000000000000000000815260040161035c906110a0565b60405180910390fd5b61036f828261094f565b5050565b600080600084815260200190815260200160002060000160008373ffffffffffffffffffffffffffffffffffffffff1673ffffffffffffffffffffffffffffffffffffffff16815260200190815260200160002060009054906101000a900460ff16905092915050565b6000801b81565b7f4a62992ec8e38bbf65fbb7fccd51b60e36acd134fb3011b5e137dfbb37c2bd9b61040e81610853565b600073ffffffffffffffffffffffffffffffffffffffff166001600088815260200190815260200160002060000160009054906101000a900473ffffffffffffffffffffffffffffffffffffffff1673ffffffffffffffffffffffffffffffffffffffff16146104b3576040517f08c379a00000000000000000000000000000000000000000000000000000000081526004016104aa9061110c565b60405180910390fd5b600073ffffffffffffffffffffffffffffffffffffffff166001600088815260200190815260200160002060010160009054906101000a900473ffffffffffffffffffffffffffffffffffffffff1673ffffffffffffffffffffffffffffffffffffffff1614610558576040517f08c379a000000000000000000000000000000000000000000000000000000000815260040161054f9061110c565b60405180910390fd5b60006001600088815260200190815260200160002060020154146105b1576040517f08c379a00000000000000000000000000000000000000000000000000000000081526004016105a89061110c565b60405180910390fd5b600060016000888152602001908152602001600020600301541461060a576040517f08c379a00000000000000000000000000000000000000000000000000000000081526004016106019061110c565b60405180910390fd5b60405180608001604052808673ffffffffffffffffffffffffffffffffffffffff1681526020018573ffffffffffffffffffffffffffffffffffffffff168152602001848152602001838152506001600088815260200190815260200160002060008201518160000160006101000a81548173ffffffffffffffffffffffffffffffffffffffff021916908373ffffffffffffffffffffffffffffffffffffffff16021790555060208201518160010160006101000a81548173ffffffffffffffffffffffffffffffffffffffff021916908373ffffffffffffffffffffffffffffffffffffffff1602179055506040820151816002015560608201518160030155905050505050505050565b6107208261028c565b61072981610853565b610733838361094f565b505050565b6000806000806001600086815260200190815260200160002060000160009054906101000a900473ffffffffffffffffffffffffffffffffffffffff1693506001600086815260200190815260200160002060010160009054906101000a900473ffffffffffffffffffffffffffffffffffffffff16925060016000868152602001908152602001600020600201549150600160008681526020019081526020016000206003015490509193509193565b60007f01ffc9a7000000000000000000000000000000000000000000000000000000007bffffffffffffffffffffffffffffffffffffffffffffffffffffffff1916827bffffffffffffffffffffffffffffffffffffffffffffffffffffffff1916149050919050565b6108648161085f610947565b610a30565b50565b6108718282610373565b61094357600160008084815260200190815260200160002060000160008373ffffffffffffffffffffffffffffffffffffffff1673ffffffffffffffffffffffffffffffffffffffff16815260200190815260200160002060006101000a81548160ff0219169083151502179055506108e8610947565b73ffffffffffffffffffffffffffffffffffffffff168173ffffffffffffffffffffffffffffffffffffffff16837f2f8788117e7eff1d82e926ec794901d17c78024a50270940304540a733656f0d60405160405180910390a45b5050565b600033905090565b6109598282610373565b15610a2c57600080600084815260200190815260200160002060000160008373ffffffffffffffffffffffffffffffffffffffff1673ffffffffffffffffffffffffffffffffffffffff16815260200190815260200160002060006101000a81548160ff0219169083151502179055506109d1610947565b73ffffffffffffffffffffffffffffffffffffffff168173ffffffffffffffffffffffffffffffffffffffff16837ff6391f5c32d9c69d2a47ea670b442974b53935d1edc7fd64eb21e047a839171b60405160405180910390a45b5050565b610a3a8282610373565b610ab157610a4781610ab5565b610a558360001c6020610ae2565b604051602001610a66929190611235565b6040516020818303038152906040526040517f08c379a0000000000000000000000000000000000000000000000000000000008152600401610aa891906112b9565b60405180910390fd5b5050565b6060610adb8273ffffffffffffffffffffffffffffffffffffffff16601460ff16610ae2565b9050919050565b606060006002836002610af5919061130a565b610aff919061134c565b67ffffffffffffffff811115610b1857610b17611380565b5b6040519080825280601f01601f191660200182016040528015610b4a5781602001600182028036833780820191505090505b5090507f300000000000000000000000000000000000000000000000000000000000000081600081518110610b8257610b816113af565b5b60200101907effffffffffffffffffffffffffffffffffffffffffffffffffffffffffffff1916908160001a9053507f780000000000000000000000000000000000000000000000000000000000000081600181518110610be657610be56113af565b5b60200101907effffffffffffffffffffffffffffffffffffffffffffffffffffffffffffff1916908160001a90535060006001846002610c26919061130a565b610c30919061134c565b90505b6001811115610cd0577f3031323334353637383961626364656600000000000000000000000000000000600f861660108110610c7257610c716113af565b5b1a60f81b828281518110610c8957610c886113af565b5b60200101907effffffffffffffffffffffffffffffffffffffffffffffffffffffffffffff1916908160001a905350600485901c945080610cc9906113de565b9050610c33565b5060008414610d14576040517f08c379a0000000000000000000000000000000000000000000000000000000008152600401610d0b90611453565b60405180910390fd5b8091505092915050565b600080fd5b60007fffffffff0000000000000000000000000000000000000000000000000000000082169050919050565b610d5881610d23565b8114610d6357600080fd5b50565b600081359050610d7581610d4f565b92915050565b600060208284031215610d9157610d90610d1e565b5b6000610d9f84828501610d66565b91505092915050565b60008115159050919050565b610dbd81610da8565b82525050565b6000602082019050610dd86000830184610db4565b92915050565b6000819050919050565b610df181610dde565b8114610dfc57600080fd5b50565b600081359050610e0e81610de8565b92915050565b600060208284031215610e2a57610e29610d1e565b5b6000610e3884828501610dff565b91505092915050565b610e4a81610dde565b82525050565b6000602082019050610e656000830184610e41565b92915050565b600073ffffffffffffffffffffffffffffffffffffffff82169050919050565b6000610e9682610e6b565b9050919050565b610ea681610e8b565b8114610eb157600080fd5b50565b600081359050610ec381610e9d565b92915050565b60008060408385031215610ee057610edf610d1e565b5b6000610eee85828601610dff565b9250506020610eff85828601610eb4565b9150509250929050565b6000819050919050565b610f1c81610f09565b8114610f2757600080fd5b50565b600081359050610f3981610f13565b92915050565b600080600080600060a08688031215610f5b57610f5a610d1e565b5b6000610f6988828901610dff565b9550506020610f7a88828901610eb4565b9450506040610f8b88828901610eb4565b9350506060610f9c88828901610f2a565b9250506080610fad88828901610f2a565b9150509295509295909350565b610fc381610e8b565b82525050565b610fd281610f09565b82525050565b6000608082019050610fed6000830187610fba565b610ffa6020830186610fba565b6110076040830185610fc9565b6110146060830184610fc9565b95945050505050565b600082825260208201905092915050565b7f416363657373436f6e74726f6c3a2063616e206f6e6c792072656e6f756e636560008201527f20726f6c657320666f722073656c660000000000000000000000000000000000602082015250565b600061108a602f8361101d565b91506110958261102e565b604082019050919050565b600060208201905081810360008301526110b98161107d565b9050919050565b7f414c52454144595f4f5045524154454400000000000000000000000000000000600082015250565b60006110f660108361101d565b9150611101826110c0565b602082019050919050565b60006020820190508181036000830152611125816110e9565b9050919050565b600081905092915050565b7f416363657373436f6e74726f6c3a206163636f756e7420000000000000000000600082015250565b600061116d60178361112c565b915061117882611137565b601782019050919050565b600081519050919050565b60005b838110156111ac578082015181840152602081019050611191565b60008484015250505050565b60006111c382611183565b6111cd818561112c565b93506111dd81856020860161118e565b80840191505092915050565b7f206973206d697373696e6720726f6c6520000000000000000000000000000000600082015250565b600061121f60118361112c565b915061122a826111e9565b601182019050919050565b600061124082611160565b915061124c82856111b8565b915061125782611212565b915061126382846111b8565b91508190509392505050565b6000601f19601f8301169050919050565b600061128b82611183565b611295818561101d565b93506112a581856020860161118e565b6112ae8161126f565b840191505092915050565b600060208201905081810360008301526112d38184611280565b905092915050565b7f4e487b7100000000000000000000000000000000000000000000000000000000600052601160045260246000fd5b600061131582610f09565b915061132083610f09565b925082820261132e81610f09565b91508282048414831517611345576113446112db565b5b5092915050565b600061135782610f09565b915061136283610f09565b925082820190508082111561137a576113796112db565b5b92915050565b7f4e487b7100000000000000000000000000000000000000000000000000000000600052604160045260246000fd5b7f4e487b7100000000000000000000000000000000000000000000000000000000600052603260045260246000fd5b60006113e982610f09565b9150600082036113fc576113fb6112db565b5b600182039050919050565b7f537472696e67733a20686578206c656e67746820696e73756666696369656e74600082015250565b600061143d60208361101d565b915061144882611407565b602082019050919050565b6000602082019050818103600083015261146c81611430565b905091905056fea264697066735822122062f91bd0f06f07f581e74a5eb90c764f2a2d5aba1cdc9ad60f10aae2db93b62264736f6c63430008120033",
  "devdoc": {
    "events": {
      "RoleAdminChanged(bytes32,bytes32,bytes32)": {
        "details": "Emitted when `newAdminRole` is set as ``role``'s admin role, replacing `previousAdminRole` `DEFAULT_ADMIN_ROLE` is the starting admin for all roles, despite {RoleAdminChanged} not being emitted signaling this. _Available since v3.1._"
      },
      "RoleGranted(bytes32,address,address)": {
        "details": "Emitted when `account` is granted `role`. `sender` is the account that originated the contract call, an admin role bearer except when using {AccessControl-_setupRole}."
      },
      "RoleRevoked(bytes32,address,address)": {
        "details": "Emitted when `account` is revoked `role`. `sender` is the account that originated the contract call:   - if using `revokeRole`, it is the admin role bearer   - if using `renounceRole`, it is the role bearer (i.e. `account`)"
      }
    },
    "kind": "dev",
    "methods": {
      "getRoleAdmin(bytes32)": {
        "details": "Returns the admin role that controls `role`. See {grantRole} and {revokeRole}. To change a role's admin, use {_setRoleAdmin}."
      },
      "grantRole(bytes32,address)": {
        "details": "Grants `role` to `account`. If `account` had not been already granted `role`, emits a {RoleGranted} event. Requirements: - the caller must have ``role``'s admin role. May emit a {RoleGranted} event."
      },
      "hasRole(bytes32,address)": {
        "details": "Returns `true` if `account` has been granted `role`."
      },
      "renounceRole(bytes32,address)": {
        "details": "Revokes `role` from the calling account. Roles are often managed via {grantRole} and {revokeRole}: this function's purpose is to provide a mechanism for accounts to lose their privileges if they are compromised (such as when a trusted device is misplaced). If the calling account had been revoked `role`, emits a {RoleRevoked} event. Requirements: - the caller must be `account`. May emit a {RoleRevoked} event."
      },
      "revokeRole(bytes32,address)": {
        "details": "Revokes `role` from `account`. If `account` had been granted `role`, emits a {RoleRevoked} event. Requirements: - the caller must have ``role``'s admin role. May emit a {RoleRevoked} event."
      },
      "supportsInterface(bytes4)": {
        "details": "See {IERC165-supportsInterface}."
      }
    },
    "version": 1
  },
  "userdoc": {
    "kind": "user",
    "methods": {},
    "version": 1
  },
  "storageLayout": {
    "storage": [
      {
        "astId": 24,
        "contract": "contracts/SaleContractOracle.sol:SaleContractOracle",
        "label": "_roles",
        "offset": 0,
        "slot": "0",
        "type": "t_mapping(t_bytes32,t_struct(RoleData)19_storage)"
      },
      {
        "astId": 4485,
        "contract": "contracts/SaleContractOracle.sol:SaleContractOracle",
        "label": "purchaseRequests",
        "offset": 0,
        "slot": "1",
        "type": "t_mapping(t_bytes32,t_struct(PurchaseRequest)4480_storage)"
      }
    ],
    "types": {
      "t_address": {
        "encoding": "inplace",
        "label": "address",
        "numberOfBytes": "20"
      },
      "t_bool": {
        "encoding": "inplace",
        "label": "bool",
        "numberOfBytes": "1"
      },
      "t_bytes32": {
        "encoding": "inplace",
        "label": "bytes32",
        "numberOfBytes": "32"
      },
      "t_mapping(t_address,t_bool)": {
        "encoding": "mapping",
        "key": "t_address",
        "label": "mapping(address => bool)",
        "numberOfBytes": "32",
        "value": "t_bool"
      },
      "t_mapping(t_bytes32,t_struct(PurchaseRequest)4480_storage)": {
        "encoding": "mapping",
        "key": "t_bytes32",
        "label": "mapping(bytes32 => struct SaleContractOracle.PurchaseRequest)",
        "numberOfBytes": "32",
        "value": "t_struct(PurchaseRequest)4480_storage"
      },
      "t_mapping(t_bytes32,t_struct(RoleData)19_storage)": {
        "encoding": "mapping",
        "key": "t_bytes32",
        "label": "mapping(bytes32 => struct AccessControl.RoleData)",
        "numberOfBytes": "32",
        "value": "t_struct(RoleData)19_storage"
      },
      "t_struct(PurchaseRequest)4480_storage": {
        "encoding": "inplace",
        "label": "struct SaleContractOracle.PurchaseRequest",
        "members": [
          {
            "astId": 4473,
            "contract": "contracts/SaleContractOracle.sol:SaleContractOracle",
            "label": "buyer",
            "offset": 0,
            "slot": "0",
            "type": "t_address"
          },
          {
            "astId": 4475,
            "contract": "contracts/SaleContractOracle.sol:SaleContractOracle",
            "label": "collection",
            "offset": 0,
            "slot": "1",
            "type": "t_address"
          },
          {
            "astId": 4477,
            "contract": "contracts/SaleContractOracle.sol:SaleContractOracle",
            "label": "kind",
            "offset": 0,
            "slot": "2",
            "type": "t_uint256"
          },
          {
            "astId": 4479,
            "contract": "contracts/SaleContractOracle.sol:SaleContractOracle",
            "label": "providedNativeAmount",
            "offset": 0,
            "slot": "3",
            "type": "t_uint256"
          }
        ],
        "numberOfBytes": "128"
      },
      "t_struct(RoleData)19_storage": {
        "encoding": "inplace",
        "label": "struct AccessControl.RoleData",
        "members": [
          {
            "astId": 16,
            "contract": "contracts/SaleContractOracle.sol:SaleContractOracle",
            "label": "members",
            "offset": 0,
            "slot": "0",
            "type": "t_mapping(t_address,t_bool)"
          },
          {
            "astId": 18,
            "contract": "contracts/SaleContractOracle.sol:SaleContractOracle",
            "label": "adminRole",
            "offset": 0,
            "slot": "1",
            "type": "t_bytes32"
          }
        ],
        "numberOfBytes": "64"
      },
      "t_uint256": {
        "encoding": "inplace",
        "label": "uint256",
        "numberOfBytes": "32"
      }
    }
  }
}